:10000000F02400200D0F0000050100000501000094
:1000100000000000000000000000000000000000E0
:1000200000000000000000000000000005010000CA
:100030000000000000000000050100002501000094
:100040000501000005010000050100000501000098
:10005000050100000501000005010000FD0C000085
:100060000501000005010000050100000501000078
:100070000501000005010000050100000501000068
:100080000501000005010000050100000501000058
:100090000501000005010000050100000501000048
:1000A0000501000005010000050100000501000038
:1000B00000000000074B084A08491A605A681140BE
:1000C000802292020A435A605A68920B92035A6045
:1000D0007047C046D403002088010020FF3F00F095
:1000E0000B7810B55B0607D14B78052B04D1802225
:1000F0008B781343024A9372FFF7DCFF10BDC046B2
:1001000000500041FEE700008023DB05002802D1FB
:10011000024A13607047024AFBE7C046980000603D
:1001200094000060024A1368013313607047C046B0
:10013000DC0400200A4A0300002A0BD0094A107888
:10014000984205D91820084A43431068C0187047E0
:100150001B1ADBB200208342F9D10448F7E7C046FE
:1001600000000000300100202C010020B02300001E
:1001700010B5CB6802490B610121984710BDC046FC
:10018000340100208023002802D0054A1360704704
:10019000044AD367BFF34F8FBFF36F8FF7E7C046B3
:1001A00000E100E004E100E030B504000A4B1B6808
:1001B0001A88002AFCD01A880020013A92B21A80CC
:1001C000064A1578A54201D1117001301A88013212
:1001D00092B21A8030BDC046E40400202400002002
:1001E000064B074AA0331A6013799B0704D10122FA
:1001F000044B1A80044A13607047C0462400002054
:100200004C240000E8040020E40400207F2210B504
:1002100002400E4B5400C009191909180431C97F56
:10022000890712D50A49520152182221012800D00B
:100230001121117102221B1918180430C37F934336
:10024000C377C37F013A9343C37710BDD401002025
:10025000005100417F2210B502400E4B5400C009EE
:10026000191909180431C97F890712D40A495201A2
:1002700052182021012800D010211B191818022320
:1002800051710430C27F1343C3770123C27F1343EC
:10029000C37710BDD401002000510041F7B5019291
:1002A0007F22024053009C46224BC50963445B19E0
:1002B0000433DC7F0020E4072ED4DC7F01302043B0
:1002C000D8771D4B5601F71863461C4C5B191B0170
:1002D0001951002A0BD1002909D1019B002B06D10D
:1002E000174B1B78DB099D4201D0FFF7E3FE019B12
:1002F00014499B04A419002D0FD160681A0903004A
:100300000B401343636063689B0B9B036360402354
:100310003B713C3B0120FB71FEBD62699B0C1140AF
:1003200061616269920B92031A43802362617B715F
:10033000783BEFE7D401002000510041D4030020B6
:1003400088010020FF3F00F010B50A4C2378D8B296
:10035000032B08D00A2801D0012809D10221FFF778
:1003600023FF002804D0402220790349FFF796FF9D
:1003700010BDC0462400002070000020F0B585B0FC
:1003800003924B790E00FE2B03D00025280005B008
:10039000F0BD8B79032BF8D10B79023B012BF4D8FC
:1003A000764B1A78D1B20091002AEED134000D00BC
:1003B000B27898705A703279009B934200D2B9E0BB
:1003C0006E4BD9780029E0D019790029DDD0022AB6
:1003D00000D0CBE05A79002AD7D11A00A032126897
:1003E000917BC90702D4D27B920702D55B79002B9F
:1003F000CBD001210020FFF7D7FEFFF7A5FFC5E70F
:10040000677922793F0217437F057F0D390040202D
:1004100001F0A6FF0029B8D1A378584AD9090129CB
:100420001ED1D37097647823A7781F42ADD160792D
:10043000227900021043E278514B410592079B78E4
:10044000490D920F022A15D0032A5FD0012A9CD1B0
:10045000023B5A4253414B4A9B18994211D994E7A7
:100460001371637920791B0203435B058C325B0DAA
:100470001360D8E7022B46D1FF33FF33994200D0F7
:1004800083E77F2300223B400193FB090293D31CA7
:100490009C4601236746BB408B4205DA0132072A9E
:1004A000F5D1430500D570E7019B37495800029B01
:1004B000364FC01807230001081841681A40394018
:1004C00012070A434260019B314A5B019B18E278A4
:1004D00002999207920F013200291ED10720197844
:1004E000024081430A431A70112201211A715A7A7B
:1004F0000A435A72009B0133DBB200932378ED1854
:10050000ADB2E41857E74029BBD93EE7022B01D032
:100510004023A2E78023DB009FE7072019780240F1
:100520006930814312010A431A7022221A71597AE2
:10053000203ADDE7039BAB4200D241E76378052B0D
:10054000DCD1E3789B079B0F022B00D158E7032BEC
:1005500000D01AE7A278D309012B00D015E7074B8A
:100560005979002900D010E75A715CE7032A00D0BE
:1005700033E75A79002A00D02FE706E7240000204D
:10058000D4010020FF030000D4030020FFFFFF8FF1
:100590000051004140B2C043002210B5C00F11000D
:1005A000C001FFF77BFE10BD064B01001A0070B5BD
:1005B00030C930C200229A60DA600078FFF7EAFFA3
:1005C00070BDC0463401002070B505000024200035
:1005D000FFF7B0FD002819D04368280098470C4B5E
:1005E00001341B78E4B2A342F1D20A4C3322002139
:1005F000200001F057FD1022FF21E01C01F052FD08
:1006000020001022FF21133001F04CFD70BDC046C8
:1006100030010020D401002070B50D4B1C682388E8
:10062000002BFCD023880B4D013B9BB2280023807C
:10063000A022002101F036FD2B00074AA0331A60EA
:10064000FF236B70238801339BB2238070BDC046AB
:10065000E4040020240000204C240000F7B50E0024
:100660001500009000294AD0254C230090331B68C8
:10067000994244D823009433196800293FD1237844
:10068000042B3CD10C221F4801F00CFD02232372E5
:10069000230099331B78227C6372DB43A37201230E
:1006A0001D409A4333002A430C333500E660227420
:1006B000402B00D934252B00134F0C332A0038006F
:1006C0000099019301F09AFC2300761B90331E6081
:1006D00029002300009A9C335019343918604B1EAE
:1006E00099418037042005313D60FFF75DFD00280A
:1006F00005D06B46E0789A880249FFF7CFFDF7BD39
:10070000240000202C0000203800002070B5124B7F
:100710009889D989421A151C92B2402A00D94025DD
:100720001A78ADB27F2A0DD9884210D00B4C996847
:100730002A00200001F062FC802021002A00FFF73F
:10074000ADFD70BD884204D100200021F6E7802075
:10075000FBE700200149F1E734010020940100206B
:10076000F8B5134E04000D001700010008223000F8
:1007700001F044FC0023B560F381E379A2791B0208
:1007800013431A1CBB4200D93A1CB281E37991B2DF
:10079000A2791B02134306D0002901D0281E01D0E4
:1007A000FFF7B4FFF8BD2078FFF7F4FEFAE7C04684
:1007B00034010020F0B50125140087B0A94231D1E1
:1007C00002ABDE1C802317783370013B3B40022BC9
:1007D00045D153780193AB4241D1E37892781B0223
:1007E00013433CD160792279A64C00021043227950
:1007F00090421AD1A44B1E683388002BFCD033885A
:10080000C5B2013B9BB228003380FFF723FD2800CF
:100810000125FFF7FBFC257033885B199BB2338001
:10082000FFF792FD280007B0F0BDE278904207D1B3
:10083000C4B22000FFF70EFD2000FFF7E7FCF1E750
:100840006279151EEED01D009042EBD1C4B220009B
:10085000FFF700FD2000FFF7D9FC019DE2E76023D0
:1008600000253B40202BDDD1607807280CD8A8421A
:10087000D8D00238052842D801F01EFD7E00A40021
:100880000E0151017C01BF01402800D1C4E1802844
:10089000C8D1A12FC6D1E379A2791B021343032B40
:1008A000C0D1E378A2781B02134319007F22914341
:1008B000B8D1D8B2821E7D2AB4D87249627927791C
:1008C0004E7812023A439642ACD104AD6870487932
:1008D000002800D1C9E100227F210700AA700F4043
:1008E0006A4A7F00C609D21992190432D27FD20710
:1008F00000D4A6E120232B70032229005CE1614B88
:1009000004AE1A00983211787170A22F00D089E7D6
:10091000E279A07912020243022A00D082E76279CA
:100920002779187912023A43904200D07AE71A7870
:10093000032A01D0802399E07F20A27802409142CF
:1009400001D1812392E0012232704F4A126811884E
:100950000029FCD01188013989B211800B2119704E
:100960001188013189B21180012232701879FFF7A4
:1009700071FC022231001FE1092002AB0322C018E2
:10098000002101F08FFB01233E4A04AE33701300B7
:1009900094331B6800250593A22F00D042E7E77926
:1009A000A3793F021F43082F00D03BE763792179E9
:1009B00012791B020B439A4200D033E7FFF7C4FCC5
:1009C0000822D7E72F4D04AE2B0099331A787270A6
:1009D000A22F01D0002525E7E379A1791B020B4363
:1009E000022BF7D163792079E9781B0203439942FE
:1009F000F0D12B78042B02D02B78052B38D17F2116
:100A0000A3780B409A4233D1012333702B0000228C
:100A100090331A601C4B1B680193019B1B88002BB1
:100A2000FBD02F00019B019A1B889437013B9BB29E
:100A30001380A96C386801F01FFC4B1E9941019B83
:100A4000083129701B88019A01339BB213803A68E0
:100A5000002A07D1E8780E49FFF720FC0028B9D01A
:100A600009232B7000220B4B1A600123337080E79F
:100A70002B78042B00D164E72B78052B00D059E7A5
:100A80005FE7C04624000020E4040020D4010020D9
:100A90002C000020B80300200025A22F00D0C1E6C2
:100AA000E379A2791B021343082B00D0BAE6092090
:100AB00002AB29000322C01801F0F4FA8023704D24
:100AC00004AE33702B7801210A3B1A00531E9A4161
:100AD00073788B43134373702B0094331B687360DC
:100AE000FFF732FC674B1B681A88002AFCD01A8873
:100AF000013A92B21A802978CAB20A2906D00B2A82
:100B000001D0082A06D10222327003E0012232709D
:100B100092182A701A88013292B21A8050E7002582
:100B2000A12F00D07EE6E379A2791B021343012BAB
:100B300000D077E6524F3879FFF78CFB3B009033BB
:100B40001D60504B1B681A88002AFCD01A884E4939
:100B5000013A92B21A8007223A701A88013292B290
:100B60001A80002301220B80484932700B604849EB
:100B70000B70FFE6A12F00D02CE7002304A90B8007
:100B8000E279A37912021A43022A00D022E77F25D4
:100B90003B48404BC67835406D005B19F6099B1900
:100BA0000433DB7FDB07DD0F002B0AD001234878FD
:100BB0000A7003434B7002222000FFF7D1FD0500AD
:100BC00030E6314B1D80314B1D60314B1D70324B77
:100BD0001D60324B1D6001230B702A4B1B681A8865
:100BE000002AFCD01A88013A92B21A8002220270BE
:100BF0001A88013292B21A80DDE70025A12F00D0B9
:100C000010E6E279A37912021A43182A00D009E605
:100C10001B4BA0331968CFE7A12F00D002E6E27981
:100C2000A37912021A43012A00D0FBE5144BA0332A
:100C30001B681B795B0700D4F4E5194B32701A70FE
:100C400098E6012240262A700B40813A134302AAFB
:100C500013710F4B19781A78B2431A7002AB59719D
:100C6000022203A9FFF71AFB46E64020084B197839
:100C70001A78A97082431A7001232B703CE6C04693
:100C800024000020E4040020D0030020B80300204A
:100C9000D8040020D4010020B4030020B0030020B9
:100CA000BC03002070B50400C289008A95B2131AF3
:100CB0009BB2824202D262899B1A9BB2A2889A425C
:100CC00019D1237A002B16D170BD801A80B29042C0
:100CD000FBD2E28823685043181801F08FF96B1C8F
:100CE0009BB29D4202D8A2899A4202D262899B1885
:100CF0009BB2E381E8E72800E9E70000F0B57A4C11
:100D000087B0A38B258B1D4004231D421CD00026D9
:100D1000A383764B1B78B34200D3D6E0744B1A788A
:100D2000520711D504211A7803AE8A431A700021A4
:100D30000C22300001F0B6F9052373706D4B3100C1
:100D400018680430FFF7AEFF01231D4218D0A383BB
:100D500003AE0F33A3830C2200212383300001F064
:100D6000A1F90423624A73701178C90708D5117874
:100D70000B4313705F4B310018680430FFF792FF8C
:100D800010231D4217D003AEA3830C22A38200219F
:100D9000300001F087F905237370554B1A78D2079C
:100DA00009D504211A788A431A70524B18684018E2
:100DB0003100FFF777FF08231D4222D01120C02108
:100DC0004D4AA383A08253684C4D89052B400B43A9
:100DD000536053692B40194351611322484B03ADB3
:100DE00018705A72FFF766F900210C22280001F0F2
:100DF00059F901236B703F4B290018680430FFF745
:100E000051FF404D2B7ADB060ED5C0233E4ADB0056
:100E1000039304AB03CA03C3364B03A91868043019
:100E2000FFF740FF11232B72238C012600249BB275
:100E30000093E3B201933300A340009A1A423FD0DB
:100E40002F4B6201D718FB79D9B2019102210B42D5
:100E50001AD0294B00219B1803A808225D6901F0D4
:100E600021F9072302AA5371E2B2873B134302AA76
:100E70001372204BAD041868AD0C043003A905951E
:100E8000FFF710FF0223FB71019B334218D01A4B6E
:100E900062019B180021082203A85D6801F002F995
:100EA000072302AA53711300E2B21A72114BAD0468
:100EB0001868AD0C043003A90595FFF7F3FEFE7129
:100EC0000134082CB5D107B0F0BD3000FFF732F97E
:100ED000002805D04369002B02D000210800984764
:100EE0000136F6B215E7C04600500041300100203F
:100EF000D401002008020020D4030020FFFFFF8F50
:100F000000510041FF50004188010020F0B5E14947
:100F1000E14889B081420AD0E04BC41E00229C42C5
:100F200003D803331A1A9208920001F067F8DC48DC
:100F3000DC4BC11E00228B4203D303331A1A9208E2
:100F40009200002101F0AEF8FF2202260C250827AE
:100F5000D54BD64893438360D54BD64C5E62E3783D
:100F6000FC3A93433343E370E378D349AB433B43C9
:100F7000E3708B7B2D3293439C46202362461343C0
:100F800003228B738B7BAB433B438B738B7BCB4DB0
:100F9000934333438B73CA4B7D3259680A435A607B
:100FA000042259680A435A602B7ADBB22B726B7A9F
:100FB000DBB26B72AB7ADBB2AB72EB7ADBB2EB72A9
:100FC000C04B1A6A196A1201120D890F170489079A
:100FD0003943BD4F3943196299690E431F210A40B5
:100FE0009E611E391A77DA68D2080A42FBD0802245
:100FF000196A0A431A628022B44952008A60B34ACD
:101000005278D209FBD1B24AB0494A600222FF327B
:101010008A60AE4A5278D209FBD1AE4AAB494A60E7
:10102000022201219A84DA68120916000E40039602
:101030000A42F8D0A84ADA62A84A12680092920ED0
:101040003F2A00D1C0E18021920289000A439A62BE
:10105000932252009A849A8C0121520700D4B6E15F
:101060001022D9681142FCD08022998C0A439A84BC
:10107000964A5278D2090092FAD102219A69C02682
:101080008A43C0219A61964A964B09065360036AC7
:10109000954F1B021B0A0B430362009BF6059360EE
:1010A000072313608022914BD2051A60904B1A607F
:1010B000904A1A600098FFF727F880238E4A1B0297
:1010C0007360BA628D4A8E48BA62042273600178F6
:1010D00011430170B3612023E9697C480B43EB6144
:1010E000402369690B436B61864B802143808023D9
:1010F000C9055B04B360B96283498448B96273610E
:1011000003788021934303708023C9059B04B36057
:10111000B9627F49B9627F4973610B7806269343B0
:101120000B70012302789A431A4302700F207A4A07
:10113000177887433E4316700E789E431E430E7009
:10114000602116780640314311708022296A5200CE
:101150000A432A62714A724D116C090E090629432D
:101160001164116D6F4D090E0906294302251165A1
:101170001168294311606C496C4D0A789A431343F6
:101180006B4A0B7013780340413018431070694B61
:101190004E4843802B78FF2B66D133220099664856
:1011A00000F080FF654A009B5382938213895B00A5
:1011B0009BB2591E5B42D381614B11821A60614B15
:1011C000002B04D0604800E000BF604B1860002690
:1011D0003000FEF7AFFF002846D0036898475A4B0F
:1011E00001361B78F6B2B342F2D200232B7022787C
:1011F000013313432370A378DB07FCD5A378DB0707
:10120000FCD41F25354B208D1B68A8439A0C2A401F
:1012100010432085228D590B4D48294089010240F9
:101220000A432285228D4B499B015B0F0A401B0319
:10123000134323850323E2781343E3700C23E278FE
:101240001343E370444B636200232381063323700E
:10125000A3789B07FCD4A38BA28B1343A3830823FF
:10126000802223833D4B1A60304B1B78FF2B00D12B
:1012700060E3334B00201C6823689847658AA28A84
:10128000A8B2AB1A91B29BB2954269D2E2899B1A7D
:101290009BB265E068250000000000202C010020C2
:1012A0002C010020EC0400200000000000ED00E014
:1012B000FC70004100500041004800410004004023
:1012C000004000410008004002030000000C004004
:1012D000000701000100010080BB010424608000C0
:1012E00010E000E07FBB0000004400418800006087
:1012F000A8440041004000C000800240000002C03D
:101300004F44004106400000000100C05844004125
:10131000000200C0594400413C440041002000420A
:1013200080BB0000C05D0000534400411800002055
:10133000394400411A400000D40100200000002080
:101340000802002000000000300100202C010020D5
:101350003FF8FFFFFF8FFFFFD403002000E100E014
:1013600022899A420CD2904204D3831A258A9BB2D6
:101370009D4203D2E389D318C31A9BB2A382130000
:101380001D1E2BD1A28A53199BB29A4202D8228ADF
:101390009A4202D2E2899B189BB2A3820120236861
:1013A0009847002D00D1C5E205AC607801380728C8
:1013B00000D95EE700F076FF1D0029005DFFA7025F
:1013C000AF0235004A02B702FC22D2013FE6DA68DA
:1013D00012090A42FBD047E6891A89B28A42FBD930
:1013E00062896368514305A8591800F007FE039D00
:1013F000C8E72078FFF7E8F814220021C04800F081
:1014000051FE2279BF4B9A7033E72078FFF7DCF862
:1014100014220021BA4800F045FEFA22BA4B1A60A5
:1014200027E701210420B74D60262B78B44F0B43EA
:101430002B702B1DDA7F8A43DA77DA7F8243DA77E3
:101440006B1DDA7F8A43DA77DA7F8243DA77237893
:10145000009300233B6123791E40602E25D0402E4F
:101460000BD1AA4B002B20D0009806AA3B6100E0CC
:1014700000BF002800D0FCE617E0DB06DB0E01937E
:10148000012B00D173E1022B00D194E1002B0CD190
:10149000202E10D1237A0F2B07D8EB18D878FEF71F
:1014A00049FE06AA011E00D09CE11022984B5A71F9
:1014B00092185A71DDE6002EF7D160790928F4D828
:1014C00000F0F0FE4A014201F3FF1501F3FF0A00AC
:1014D000AC00F3FF300039003A0006AB03CB03C287
:1014E00000238C4CBB60FB6023618B4B1B78DB09BA
:1014F000012B01D0FEF7DEFD6369884A134080228C
:10150000636163699B0B9B036361814B5A71783AFA
:10151000DA71834B073A9A831A8302232A7813439A
:101520002B70A6E66B7804AA911C01220B7006A80A
:10153000FFF716F99DE6A37901936B78019A9A4219
:1015400050D06B78002B04D0AC780098FFF73CF8B3
:10155000AC70019B002B45D0302201272B78714CB9
:1015600093432B7009346378042B9ED100256D4E74
:101570002736361BB6B22800FEF7DCFD002894D0D3
:101580008368320021000098984708283FD9864296
:101590003DD300225B4913E0437801270B2B02D196
:1015A0000378C778C0180400DDE7A378D318DBB24E
:1015B000CB18DE78FF2E00D077E70132DD70D2B293
:1015C000BA42F2D14F492018A04212D8564B1B788C
:1015D000AB4200D269E7534B27339842DCD3002259
:1015E000494B1A60474B019A5A7006A8FEF7DCFF78
:1015F0003FE66378052B07D1A2787A3313405B006E
:10160000CB181333D2099D542378E418DCE7464BFA
:1016100001351B78EDB2AB42ADD246E7E3881A0A3A
:10162000501EDBB20E2800D93FE700F03BFE0F0052
:1016300023002E003EFF3EFF550023003EFF3EFFED
:101640003EFF3EFF3EFF3EFF3EFF150012223749A0
:1016500006A8FFF785F80CE7354B002B00D124E7EF
:1016600000E000BF011E00D11FE7CA788B7812028C
:101670001A43EDE72B49022AF7D02E4A002A00D15F
:1016800013E7180000E000BFECE7002B0DD12A4A59
:101690002A4B5A800122C0235200023227499B0064
:1016A00013430B80FF231A40D2E7042B00D9FCE63A
:1016B000234A9B009C58200000F048FDE0231F2295
:1016C000184200D1C2B21D499642E4D2A55D731CF6
:1016D00058004552DEB2F7E71A4B002B00D1E4E682
:1016E00000E000BF011E00D1DFE60278B0E7E3882A
:1016F000012B00D0D9E62A78073313432B7074E707
:1017000034010020D40100201C0000200000000053
:1017100000510041D403002088010020FF3F00F069
:1017200000500041DA23000030010020C8230000EF
:101730000000000000000000090400004801002033
:101740003824000000000000E388012B00D0ACE644
:1017500008222B789343D1E704AA911C02222B780C
:1017600098069B08C00F134003430B80DFE6237AE3
:101770000F2B00D999E6EB18D878FEF7DBFC011E99
:1017800000D192E6009806AAFEF7F2FC002800D0ED
:101790006FE560236021227913400A4200D084E67D
:1017A000627911000A39012900D97EE63B610A2AD3
:1017B00000D01AE7B7E67823277A1F4200D074E6F4
:1017C00007333B405B00FA09ED18AB18D87C029355
:1017D000FEF7B0FC0500002E08D0002800D164E61A
:1017E000010006AA0098FEF7C3FC42E6637901995E
:1017F0001A008A43012A0CD0002B00D055E6029D26
:1018000004AA0435EB7F911C9B07DB0F019A0B8028
:101810008DE6E288002A04D13800012B13D1FEF7AF
:10182000F5FC002D00D124E506AA29000098FEF75A
:101830009FFC00228A4B1A618A4B0533DB7FDB0752
:1018400000D516E5D1E6FEF705FDEAE77F2601277C
:101850002579844B2E4072009B18E8091B181A1D2D
:10186000D17FB943D177D17F0337B943D177002EE8
:101870003DD12578A6687A4C2378DA0982420FD0C8
:10188000002E00D0F5E421002800FEF729FC236992
:10189000002B00D1EDE42200032128009847E8E462
:1018A0007F2B07D8A068002800D1E2E432006E49FF
:1018B00000F0A4FBA268E38992199B19A260E28858
:1018C0009BB2E3819A4201D03F2E0DD82369002BB1
:1018D00003D12078FEF75EFECBE42200022128002F
:1018E00098470028F5D1E0E5FEF710FFC1E4D87C69
:1018F000FEF720FC031E1DD01E69290062792078A6
:10190000A368B047B5E4574B1B78DB0700D4B0E4BD
:10191000564B574A83E5534B1B78DB0700D4A8E4AA
:101920000022524B7BE56368002B00D1A1E4A06844
:1019300098479EE44D4B1C68002C27D14D4D4E4AD4
:101940002B78D8B2002B12D001201070FEF7DCFBF0
:101950004A4B1A684A4B2C701A604A4C208801384E
:10196000032800D980E400F093FC232A424E137828
:10197000002BF2D0414B42491B6809685B1A42496F
:101980008B42EAD91070FEF7BFFBE6E73B4B3C4ABF
:101990001B6811685B1A9C42DFD864181460364CCF
:1019A00025782800FEF7B0FB01235D402570D4E7C1
:1019B000324B1A68354B1A600223238054E42F49B6
:1019C000324A0B6810681B1A31480068834200D8FD
:1019D0004AE40B68136003232E4A238011780D33E9
:1019E0000B431370402311780B4313703CE4234BDB
:1019F000264A1B6812689B1A254A1268934200D82F
:101A000032E40423D9E7244D2B68002B00D12BE4CA
:101A1000224A1368002B00D026E4214B21491B6881
:101A20000868002B0CD00100342800D93421012291
:101A30001D48FEF713FE002323802B60FFF714FCE4
:101A40001A4B1B681900834200D901001160002263
:101A5000984252411648D2B2FEF700FEFFF704FC4E
:101A600034010020D4010020940100201C0000203B
:101A7000C4090000BC030020C4030020DC040020D3
:101A8000D4040020D0030020ED020000CC0300208D
:101A900020000020D8040020B8030020B403002058
:101AA000C0030020C803002001240000B003002070
:101AB000CC020020F7B52F4F05003B0090331B6888
:101AC0000C008B4204D93B008C331B68934207D92E
:101AD00001210320FEF768FB061E02D10020FEBD97
:101AE00000263B0090331B689C4200D91C003A0042
:101AF0001B1B9437903213603B681B193B601E4FD1
:101B0000386823180193E02BE8D81C4B2200C0183A
:101B1000290000F073FA019B194A3B60B3B21380AD
:101B20000023184F3B609E421FD0032C08D904228B
:101B30002900154800F03EFB002801D101233B603D
:101B400005222900114800F035FB00280DD10C4B6F
:101B50001880681D00F07EF9C343DB1718400C4B5A
:101B6000984200DD18000B4B1860FEF7EDFB0120DA
:101B7000B5E7C04624000020B0030020CC020020BE
:101B8000D0030020C0030020742300007A2300004B
:101B90001027000020000020F7B514001E00002AC6
:101BA00001D0002410E09D4D2B78072B01D101249A
:101BB0000AE02879814200D0B0E02B78DAB2022B1B
:101BC00004D0032A00D199E02000FEBD0B2EE8D9F5
:101BD0002B004D331A782B004E331B78DB43DBB2DE
:101BE0009342DED1002BDCD02B004C331B78022B30
:101BF0002AD0802B76D0012B23D103210220FEF79F
:101C0000D3FA041ED3D02B000022290094331A608B
:101C10002B6D90310B6082490A60E12B10D82B7834
:101C2000032B05D02B004D331B7898352B70CBE759
:101C3000310032007B480C39FFF73CFF0028F1D11E
:101C40002879FEF707FBACE70C2EAAD10421180077
:101C5000FEF7AAFA041EA4D02A002B004D321278F7
:101C600099331A702B002E6D90331E602B000022CA
:101C700094331A602B0054331B786B49DB07DB0F5E
:101C80000B70DAB22B0055331978684B1970002AA3
:101C900005D0A0352B685B79DB0700D481E7644B66
:101CA0001E60644B1B88002B03D0634D28680028FE
:101CB00007D1624B1A68002A00D072E701321A601D
:101CC00082E7574B1A68111AB14200D93100461801
:101CD000921B53425A415A4BD2B2C018FEF7BEFC77
:101CE0002E6071E7A0352B689B7B5B0700D458E71B
:101CF0004023544A11780B43137058E72B78032B79
:101D000000D054E7320031004F48FFF7D3FE041EE5
:101D100000D04CE72879FEF79DFA55E7EC78A14210
:101D200075D128780538042800D93AE700F0BAFAC6
:101D30002400050039FF62006C0001210620FEF737
:101D400033FA002800D12CE73B4A354B11681B6859
:101D5000994203D03D4B1B68002B0AD01020394913
:101D60000B7883430B700023324913600B80334997
:101D70000B60FEF7E9FA14E72F002E0090373B685E
:101D80009C36316801933F2B11D920004022FEF789
:101D900085FA041E00D104E733689435403333607C
:101DA0003B68403B3B602B6840332B600CE7019A5B
:101DB000274800F023F92A009432136820000433E6
:101DC000136000233B6033606B4621499A88FEF71D
:101DD00065FA041E00D1E4E6A96C019800F04CFA03
:101DE000002903D1019B002B00D0E0E606220B4B1B
:101DF0001A70E9E6200000221549FEF74FFA041E8A
:101E000000D1CEE6092311E70A232B70CFE66879CB
:101E1000401A43425841C4B2D6E6C04624000020CE
:101E2000B00300207C000020E1040020E00400203A
:101E3000C8030020D0030020B4030020B803002012
:101E4000CC020020D804002070000020C003002035
:101E50002C00002010B50A22002100F0BDF810BDB2
:101E600010B50A23002200F0A7F810BDF0B54546D2
:101E700057464E46DE46E0B5814683B08A469046D8
:101E80001D00012B3ED00093242B3BD80A000820D4
:101E9000474E13001C78571C315D3A000842F8D1B8
:101EA0002D2C00D177E02B2C5DD000239B46002DFC
:101EB00048D0102D5AD03F4B00995B441800019335
:101EC00000F0DAF90B0006002100002200201C00BF
:101ED0000B00303B092B07D9113B192B03D90B0001
:101EE000613B192B1AD80A339D4217DD002A26DBE5
:101EF000864224D321D0009A504301221818397801
:101F00000137E5E700F074F816230360002003B002
:101F1000F0BCBB46B246A946A046F0BD002A30DB65
:101F20005B46002B00D040424346002BEFD0002AF6
:101F300038D1434652461A60E9E79C42DBDA012277
:101F40005242DCE7302C03D00A230A250093B2E783
:101F500020223B789343582B26D110237C78009382
:101F600002371025A7E73C789F1C9EE710230093BB
:101F7000302CA0D120223B789343582BEDD00095F4
:101F800099E722234A4613604346002B08D07B1E64
:101F90009A460198CDE73C789F1C01239B4686E733
:101FA0000198B4E70190F2E708230825009382E73F
:101FB00065240000FFFFFF7F10B5FFF757FF10BD3E
:101FC00010B504001300034A10680A002100FFF74F
:101FD0004DFF10BDC800002010B504001300034AD7
:101FE00010680A002100FFF741FF10BDC800002063
:101FF000014B18687047C046C8000020F0B5C646BF
:1020000000B50F2A43D90B00032603431E400C00E2
:102010000300002E40D11500103D2D09AC462D01C6
:10202000A846804400E03B00676825685F60E76879
:102030001D60DF601F00A56810379D6010344345A8
:10204000F1D165460F230C2401352D0149191340A8
:102050004519144223D08C59AC5104369C1B032CD7
:10206000F9D80324043B9B0801339B002240ED1860
:10207000C918561E002A07D0002300E02300CA5CBE
:102080005C1CEA549E42F9D180BCB846F0BD050004
:10209000561E002AF0D1F7E7561E0500ECE71A009D
:1020A000F6E7C046F0B5050083074AD0541E002A63
:1020B00044D0CEB20300032202E00135013C3DD3FF
:1020C00001332E701342F8D1032C2FD9FF220A407E
:1020D000150215432A0415430F2C35D92700103F4C
:1020E0003F093E01B4461E001A00103666441560D2
:1020F00055609560D5601032B242F8D10F260C229F
:1021000001373F012640DB193700224217D03E1F1E
:10211000B608B400A4461A001C1D644420C2A242A2
:10212000FCD103240136B6009B193C40002C05D09D
:10213000C9B21C19197001339C42FBD1F0BD3400A7
:10214000F4E714000300BFE72700E0E710B58307BA
:1021500027D00378002B26D00300032102E01A7851
:10216000002A1CD001330B42F9D119680F4A104CD8
:102170008A188A4322420FD1043319680B4A8A18FD
:102180008A43224208D104331968084A8A188A43CC
:102190002242F1D000E001331A78002AFBD1181A4C
:1021A00010BD0300E1E70020FAE7C046FFFEFEFE97
:1021B00080808080F0B59446002A1AD000250F4A0E
:1021C000032706E0E41A16D1002B10D00135AC45E8
:1021D0000FD0445D135D3B40012B00D120344B5D9B
:1021E000D65C3E40012EEDD12033E31AEED018002C
:1021F000F0BD0023FBE72300F9E7C046652400009B
:10220000002934D00123002210B488422CD30124A9
:102210002407A14204D2814202D209011B01F8E73E
:10222000E400A14204D2814202D249005B00F8E7F7
:10223000884201D3401A1A434C08A04202D3001B23
:102240005C0822438C08A04202D3001B9C08224356
:10225000CC08A04202D3001BDC082243002803D094
:102260001B0901D00909E3E7100010BC704701B554
:10227000002000F00BF802BD0029F8D003B5FFF7ED
:10228000C1FF0EBC4243891A1847C0467047C0467A
:1022900002B4714649084900095C49008E4402BCF9
:1022A0007047C04603B47146490840004900095EC2
:1022B00049008E4403BC704703B47146490840008E
:1022C0004900095A49008E4403BC7047002941D097
:1022D00010B404004C40A44601230022002900D57C
:1022E0004942002800D5404288422CD301242407CB
:1022F000A14204D2814202D209011B01F8E7E400A5
:10230000A14204D2814202D249005B00F8E7884230
:1023100001D3401A1A434C08A04202D3001B5C08A8
:1023200022438C08A04202D3001B9C082243CC0805
:10233000A04202D3001BDC082243002803D01B0963
:1023400001D00909E3E710006446002C00D54042A3
:1023500010BC704701B50020FFF798FF02BDC046D2
:102360000029F7D003B5FFF7B3FF0EBC4243891A2B
:102370001847C0462A69646E3F0064656C61792025
:102380000054696E795553420054696E7955534231
:102390002044657669636500313233343536005444
:1023A000696E7955534220555342544D43000904F8
:1023B000E1010000190600007D030000B5070000E0
:1023C000991B000000000000120100020000004004
:1023D000FECA0040000201020301090227000101B8
:1023E0000080320904000003FE0301040705010216
:1023F0004000000705810240000007058203080035
:102400001654696E795553422C4D6F64656C4E7548
:102410006D6265722C53657269616C4E756D626593
:10242000722C4669726D776172655665723132330E
:102430003435360D0A000000AE2300008123000071
:1024400089230000982300009F2300000100000161
:102450000400000000000000000105010000000071
:1024600000000000002020202020202020202828FC
:102470002828282020202020202020202020202044
:102480002020202020881010101010101010101084
:1024900010101010100404040404040404040410B4
:1024A0001010101010104141414141410101010142
:1024B000010101010101010101010101010101010C
:1024C0001010101010104242424242420202020218
:1024D00002020202020202020202020202020202DC
:1024E000101010102000000000000000000000008C
:1024F00000000000000000000000000000000000DC
:1025000000000000000000000000000000000000CB
:1025100000000000000000000000000000000000BB
:1025200000000000000000000000000000000000AB
:10253000000000000000000000000000000000009B
:10254000000000000000000000000000000000008B
:10255000000000000000000000000000000000007B
:08256000000000000000000073
:10256800850100000C02002010000C000000E0FFB4
:102578001F00000000000000FF000000FA0000003B
:102588007D00000000FF00000000000000000000C7
:102598000000000000000000000000000000000033
:1025A8000000000000000000000000000000000023
:1025B8000000000000000000000000000000000013
:1025C8000000000000000000000000000000000003
:1025D80000000000000000000000000000000000F3
:1025E80000000000000000000000000000000000E3
:1025F80000000000000000000000000000000000D3
:1026080000000000000000000000000000000000C2
:1026180000000000000000000000000000000000B2
:102628000000000000000000CC00002000000000B6
:102638000000000000000000000000000000000092
:102648000000000000000000000000000000000082
:102658000000000000000000000000000000000072
:102668000000000000000000000000000000000062
:102678000000000000000000000000000000000052
:0C26880000000000000000000000000046
:00000001FF
