S0160000555342544D435F54696E795553422E7372656353
S1130000C826002019010000150100001501000098
S113001000000000000000000000000000000000DC
S113002000000000000000000000000015010000B6
S11300300000000000000000150100005906000047
S11300401501000015010000150100001501000054
S1130050150100001501000015010000A1040000B5
S11300601501000015010000150100001501000034
S11300701501000015010000150100001501000024
S11300801501000015010000150100001501000014
S113009015010000190200001501000015010000FF
S11300A015010000150100001501000015010000F4
S11300B00000000010B5064C2378002B07D1054B37
S11300C0002B02D0044800E000BF0123237010BDC0
S11300D0B002002000000000D8810000084B10B5D9
S11300E0002B03D00749084800E000BF0748036815
S11300F0002B00D110BD064B002BFBD09847F9E72D
S113010000000000B4020020D8810000D881000063
S113011000000000FEE70000F8B5234A234B9A4292
S113012009D0224B204A03E01168196004330432D9
S11301301F498B42F8D31F4B02E000221A6004339C
S11301401D4A9342F9D31D4AFF211D4B8B439360F3
S1130150FD3990235B001B4AD1501B4AD3780325F9
S1130160AB4302242343D370D3780C27BB43082624
S11301703343D370154B987B302290432022104395
S11301809873997BB943314399739A7BAA43224369
S11301909A730F4A516880230B4353600D4B984761
S11301A00D4B9847FEE7C046D881000000000020B0
S11301B0B0020020B0020020C406002000ED00E0E0
S11301C00000000000700041005000410048004160
S11301D000400041CD590000FD0200000300064A22
S11301E01268002A04D0044A1068C31813607047C8
S11301F00249014A1160F6E7CC020020C82600201B
S113020010B5C3689A7BD20700D410BD01229A733B
S113021003689847F9E7000010B5024B1868024BD1
S1130220984710BDD0020020010200000022014BBB
S11302301A60704704000020FA22014B1A607047CC
S113024004000020014A024B1A607047C4090000F0
S1130250040000200022014B1A60704704000020B3
S11302600122014B1A707047D402002010B51E4BB6
S11302701B68002B23D11D4B1B78002B04D11B4B77
S11302805B78002B0CD110BD184C01236370012046
S1130290174B9847174B9847606000232370F2E789
S11302A0144B9847114B5B68C01A134B9842EAD918
S11302B000220E4B5A7000200D4B9847E3E70D4B7C
S11302C098470A4B5B68C01A074A12689042DAD30F
S11302D0064C9B1863606078054B9847637801224D
S11302E053406370CFE7C04604000020D4020020CE
S11302F0B104000069060000ED02000010B5074BD0
S113030098470020064B9847002101204042054BA6
S11303109847054B9847054B9847F5E7D1040000EB
S113032019210000C92800006D0200007D070000AB
S113033030B5504A53681E218B431C390B4353601C
S1130340082204231A4380239B0013439BB24A4A86
S11303509382938A0B439382474BDB689B07FBD5BD
S1130360012380214900194344488160A022D2001E
S11303701A4380235B021A4380239B021343436086
S11303803E4B5B78DB09FBD18023DB0180225200EA
S113039013433A4A5380384BDB68DB06FBD5022211
S11303A0354B9A84344BDB68DB06FBD5344B354A3A
S11303B01A43F823DB0513432F4AD3622E4BDB6821
S11303C0DB06FBD5304B1A682B498B6A920E9202DE
S11303D02E48034013438B62274BDB68DB06FBD5B7
S11303E0254A938C2A490B439384244880231B0376
S11303F08022920280214902E024E40021430A433E
S1130400134343601D4B5B78DB09FBD1214C8023F4
S11304101B068022D20580214905E020C0048825DE
S11304206D02284301430A431343A362124B1A6A21
S113043019490A401A621A6A80218A431A620323FC
S1130440803119430D488160C022D2001A438023B1
S11304505B021A4380239B0213434360074B5B7880
S1130460DB09FBD10D4B00221A725A729A72DA72AE
S113047030BDC0460040004100080040000C004070
S11304800000FF01B905000024608000FF03FFFFA6
S11304900408000000440041FFFCFFFF000400408A
S11304A010B50020014B984710BDC046F130000044
S11304B0002806D08021C9059423C022D205D1503A
S11304C070478021C9059823C022D205D150F7E78F
S11304D0F8B54D4B98474D4A4D4B1A604D4A4E4B1B
S11304E053604E48036A1B021B0AC02109060B43D2
S11304F003620023936007331360C025ED05802752
S1130500FF058133EF50464C2033E750454AE25013
S11305100020454B9847802212026A60434BA36235
S1130520434BA3626A604F21635C04208446034307
S1130530DBB26354AA613F4EF36920221343F36193
S113054073692032134373613B483C4B43808023DF
S11305505B04AB60A7623A4AA2626B615822A35C57
S113056061468B43A35480239B04AB60A762354947
S1130570A1626B615921635C6546AB436354A35C20
S1130580033DAC46AB4301273B43DBB2A3541C3AC7
S1130590A35C0E35AB4306252B43DBB2A354635C4B
S11305A06546AB433B43DBB26354A15C0E35294043
S11305B060231943C9B2A154326A80235B001343F8
S11305C03362214B1A6C120E12062049114319642E
S11305D01A6D120E12061E4911431965196802227A
S11305E00A431A605323E25C61468A433A43D2B217
S11305F0E2543922A35C2B4050210B43DBB2A354B9
S1130600144B4380F8BDC04631030000006CDC028B
S11306100000002010E000E07FBB000000ED00E0DF
S113062000440041004000C0B104000000800240CA
S1130630000002C000040040000C0040064000001E
S1130640000100C0000200C00020004280BB000086
S1130650C05D00001A400000024A136801331360B1
S11306607047C046DC020020014B18687047C04642
S1130670DC02002010B5014B984710BDA113000007
S113068000487047407C0000034A137840210B4324
S1130690DBB2137001207047E00200200022094BF6
S11306A05A600379427912021A4383791B041A436C
S11306B0C3791B061343E12B01D8012070470020A6
S11306C0FCE7C046E002002010B50B4B9A685B685B
S11306D09A4203D0084B1B7B002B08D0064B1A7898
S11306E010218A431A700022DA811A619A60034B3E
S11306F09847012010BDC046E0020020A11300006D
S113070070B5017943791B020B43817909040B43CA
S1130710C17909061943174B5961DB899BB2002B38
S113072003D0144B9A68002A08D1124B1B69002B82
S11307301ED101220F4B1A61012070BD0D4B5B6865
S1130740981A0C00814200D904000A4D2800183080
S1130750801812199A1A51425141CAB20023210039
S1130760054EB047AB689C466444AC600120E4E7A6
S11307700020E2E7E0020020A110000010B56C4B5D
S1130780DB899BB2022B4ED043D9032B66D0042BBA
S113079048D1674B1B69002B44D0654B9B68002BE9
S11307A040D1634B1B7B002B65D1624B1B78002B24
S11307B000D06FE05F4B5B78002B00D079E05D4B9D
S11307C09B78002B00D083E05A4BDB78002B00D0C1
S11307D08DE0584B1B79002B0CD1564B5B79002BC9
S11307E008D1544B9B79002B04D1524BDB79002B5D
S11307F000D18BE04E4B5969002900D00121002320
S113080001224D484D4CA047494B0022DA811A6120
S113081008E0012B06D14A4B98474A4BD86702227D
S1130820434BDA8110BD464B9847464BDB6FC01AE9
S1130830454B1B689842F5D9414B9847414BD867C3
S11308403B4B0322DA811A7810210A43D2B21A7080
S11308501A7840210A43D2B21A70E3E7384B98471A
S1130860384BDB6FC01A384B1B689842DAD9042224
S11308702F4BDA81D6E72E4B5969062900D9062178
S11308800023012231482D4CA047294B0022DA8154
S11308901A61C7E7264B5969092900D909210023A0
S11308A001222B48254CA047214B0022DA811A61F2
S11308B0B8E71F4B5969092900D9092100230122EE
S11308C024481E4CA0471A4B0022DA811A61A9E77A
S11308D0174B5969002900D00121002301221E4829
S11308E0164CA047124B0022DA811A619AE7104B8A
S11308F05969042900D904210023012217480F4C07
S1130900A0470B4B0022DA811A618BE7084A53682F
S113091052691900934200D9110005488160CB1A2D
S11309205A425A41D2B218300023044CA04779E706
S1130930E0020020E0030020607C0000A110000021
S1130940690600006003002008000020587C0000B5
S1130950E8050020DC050020D8050020F40500206F
S113096001230370034B0022DA811A611A700120FB
S11309707047C046E0020020074B0022DA811A616A
S1130980002119709A605A600132027043789343CF
S1130990437001207047C046E00200200022034B50
S11309A01A610123037001207047C046E002002051
S11309B010B5024B9847012010BDC046A11300009A
S11309C0012303700120704710B5024B98470120A2
S11309D010BDC046A11300007047000010B5014BC4
S11309E0984710BDA113000010B5054A1378DBB277
S11309F011784024A143117001220270180010BD27
S1130A00E002002010B50C00024B9847012323702C
S1130A10012010BD6102000010B50B4A137B0221B6
S1130A200B431373084B1B7EDB07FBD5064B0122DC
S1130A301A76588B80B2054B984702000B00044C81
S1130A40A047044B984710BD00400042CD5400001D
S1130A50B13C00009135000010B52021014B9847AE
S1130A60013010BDD55B0000F0B587B0051C0C004B
S1130A701F4FB84706001422002120001D4B984741
S1130A800A22210030001C4B984720001B4B98473A
S1130A90201802221A491B4B984730001A4B9847DA
S1130AA0011C281C194B984719491A4B9847B847F9
S1130AB0002805DB0A2201A90F4B984700250AE00C
S1130AC04042F7E720000D4B9847201802221249B4
S1130AD00C4B9847013501A8084B98470323181A73
S1130AE08542EFD301A920000C4B984707B0F0BD15
S1130AF0453B0000735A0000455A00007F5B00002C
S1130B00647C0000615A0000853B00000D38000041
S1130B1000007A44CD350000687C0000655B00006D
S1130B20F0B583B001900D001400AE4B586847181F
S1130B30E02F02D9002003B0F0BD1E0018331818AE
S1130B400A000199A84B98477760A3B2F381002368
S1130B503373A64A13715371537013709371937066
S1130B60D371D370002C19D0032D17D90522019904
S1130B709F48A04B9847002810D10122994B1A7323
S1130B80002C07D0052201999B489A4B9847041ED4
S1130B9000D114E1994B98470120CCE7002C14D0E4
S1130BA0032D12D9042201999548924B98470028A5
S1130BB00BD101228D4B1A710022924B1A81924B58
S1130BC08022D2009A605A61DAE7002C08D00F2DF7
S1130BD006D9102201998D48864B9847002840D0A9
S1130BE0002C08D00F2D06D9102201998848814B7A
S1130BF0984700284ED0002C08D00A2D06D90B2285
S1130C00019984487B4B9847002857D0002C08D082
S1130C10092D06D90A2201997F48764B9847002866
S1130C2063D0002C7ED0092D7CD90A2201997B48FF
S1130C30704B9847002875D101226C4B9A70724B07
S1130C401B6A5B0507D4704B1B685B0564D56E4B50
S1130C501B695B0560D5022271497248624B984753
S1130C608EE70122614B5A7101986F4B984700211E
S1130C706E4B98476E4B98476E4A6F4B6F4DA84723
S1130C8000226F4B6F4DA8476F4B984780B25D4B66
S1130C90188175E70122554B5A705A4B188980B256
S1130CA06A4B9847624B9847624A694B654DA8471F
S1130CB0684B98476849694B984761E701224B4B59
S1130CC01A70674B9847614B9847E6218905654B35
S1130CD09847574B9847574A574B5A4DA8475D4B2F
S1130CE0984761495D4B98474AE701223F4B9A7107
S1130CF001984D4B98475D4B9847012807D0002831
S1130D0000D03DE78022D2003F4B5A6138E7802271
S1130D10D2003D4B9A6133E7022255494148324B98
S1130D2098472DE7002C29D0092D27D90A22019EA6
S1130D30310050482F4B984700281FD101222B4BDC
S1130D40DA713000384B98470500022201004A4806
S1130D50284B9847002804D18022D2002A4B5A609D
S1130D600EE7032229004548224B9847002800D06B
S1130D7006E78022D200244B9A6001E7002C00D1C0
S1130D80FEE6092D00D8FBE60A2201993C48194BDE
S1130D909847002800D0F3E60122144BDA701A4B6E
S1130DA01B685B0505D50332344936480E4B98471A
S1130DB0E6E60322304933480B4B9847E0E600222D
S1130DC0084BDA8101980530284B98472E4B9842FE
S1130DD000DD1800002802DB2C4B1860DAE6200046
S1130DE0FAE7C046E0020020615A0000E003002058
S1130DF06C7C00008D5B0000E87C0000A113000007
S1130E00747C000000480042004400417C7C0000E7
S1130E10907C0000A47C0000B07C0000BC7C00003E
S1130E20F07C0000D8050020590A00003968000051
S1130E30515500006666666666660A40D142000047
S1130E40000090403949000065540000253C000032
S1130E5066666A3FF5550000DC050020690A00005B
S1130E60190A0000CD350000E8050020C159000032
S1130E70687C0000C87C0000D47C0000D87C0000A2
S1130E80DC7C0000F405002010270000080000208E
S1130E9000487047F47C0000014814307047C04695
S1130EA0F47C000070B500280ED0042826D88000F9
S1130EB0134BC5582800134B9847FF2318401F288D
S1130EC000D91F2000230EE00D4B196802220E48A2
S1130ED002300E4B9847012007E05A1CEC5C51008D
S1130EE0094BCC52D3B29842F7D801304000C0230A
S1130EF09B001843044B1880180070BD0020FCE7C9
S1130F000C0000207F5B0000E8030020615A000011
S1130F100C4B1A6813889BB2002BFBD01388013B3F
S1130F209BB21380084B1B78DBB2834205D00020B0
S1130F30138801339BB213807047034B197001204F
S1130F40F6E7C046280400202000002010B5040065
S1130F500C2901D0002010BD08390220164B9847F7
S1130F600028F8D0627815499923CA542379627904
S1130F7012021A43A3791B041A43E3791B06134391
S1130F8090228B5000229423CA50237ADB07DB0F74
S1130F90D9B20B4A1371637A5371002905D0A02387
S1130FA0064AD3585B79DB0703D52000054B9847E5
S1130FB0D1E70020CFE7C046110F00002000002039
S1130FC0280400200107000070B50D001400154A24
S1130FD01278032A01D0012070BD124A8C21505886
S1130FE004315258A24201D9984219D9012103204F
S1130FF00D4B98470028EFD090230A4AD35821007C
S11310009C4200D91900074A5B1A902413510434F6
S113101013595B18135102002800044B9847DBE76F
S11310200020E9E720000020110F0000210B000040
S113103070B505000E00140003210220144B9847DC
S1131040002801D1012070BD124900229423CA5006
S11310503379727912021A43B3791B041A43F37970
S11310601B06134390228B5030000B4B98470028EB
S1131070E9D022000C3A31000C3123002800074C3F
S1131080A0470028DFD071789823024AD154DAE7C8
S1131090110F0000200000209D060000C90F000071
S11310A0F0B5C64600B582B006000C0017001D005E
S11310B0002973D09023404AD358994200D972E052
S11310C09423D358002B00D06FE0002D11D0A0330F
S11310D0D3585B79DB076AD5384B1B79002B68D072
S11310E04318013B1A78354B5B799A4201D00020B2
S11310F055E0314B1B78042B01D000204FE02E4BE0
S11311009846180008300C2200212D4B98470221E4
S11311104346197299234246D35C5372DB4393725C
S11311204346D460012217401B7C012083432A409C
S113113052001F438F43174343461F7423000C334D
S1131140402B27D825000C239846A8441A4F380072
S113115014302A0031001B4B9847641B9023FC5029
S11311600433FD5076190833FE5043463F2B13D900
S113117005210420144B9847002810D043466A46A2
S1131180D380D3880C4802000832C17880780F4C91
S1131190A04704E03425D6E70621EAE7002002B0A0
S11311A004BC9046F0BD0020F9E70020F7E70020DA
S11311B0F5E70020F3E7C0462000002028040020C3
S11311C0735A0000615A0000110F0000BD23000093
S11311D010B50D4B9847A0230C4AD050837B5B0776
S11311E002D50B4B002B0ED00379DA070BD49A07E8
S11311F009D45B0702D5074B002B04D0064B012210
S11312001A80064A136010BD8106000020000020E9
S113121089060000050A0000FC05002028040020BF
S1131220F0B5D646474680B583B001900D00160050
S11312304B79FE2B06D00024200003B00CBC904652
S11312409A46F0BD8B79032B01D00024F4E70B7987
S1131250023BDBB2012B01D90024EDE74B4B1B7899
S1131260002B00D081E08A78484B5A706A46127984
S11312709A700F0000239846002438E03A797B796D
S11312801B0213435B055B0D9A4619004020404B3B
S1131290984700296BD1BB785AB2002A0ADB3B4A33
S11312A0137139797B791B020B435B055B0D8C2130
S11312B053500EE0354AD3705346936409E0BB782B
S11312C05AB2002A55DA314A5279002A53D12F4AA8
S11312D05371390001982F4B984700284DD043464D
S11312E00133DBB298463B781C19A4B2FF182B7962
S11312F098450DD2B4420BD87B78052BF3D1FB78FB
S11313009B079B0F022BB9D0032BD8D0002493E763
S11313101E4AD278002A32D01C4A1279002A30D0D0
S1131320022B16D0032B1AD0A023184AD3589A7B29
S1131330D20702D4DB7B9B0703D5144B5B79002BCC
S113134021D001210020144B9847287A134B984749
S113135072E70E4B5B79002BE6D000246CE70B4B55
S11313605B79002BE0D1002466E7002464E70024C5
S113137062E7002460E700245EE700245CE70024C1
S11313805AE7002458E7002456E7C046200000200E
S1131390853500007D230000110F00007506000054
S11313A010B50C4B1878C0B203280AD00A2803D011
S11313B0012801D000200CE00221074B98470028A7
S11313C007D0044B1A004C32197998784023034C07
S11313D0A04710BD20000020110F0000BD23000015
S11313E070B50E4B984706000D4B1C6823889BB2C2
S11313F0002BFBD02388013B9BB22380094DA42200
S113140000212800084B9847A023EE505F336B70EF
S1131410238801339BB2238070BDC046810600003F
S11314202804002020000020735A0000F0B5C646AE
S113143000B505001800002A00D0DAE0734B1B78D1
S1131440072B00D1DAE0714B1E798E420AD06F4B24
S1131450DC78A14261D06D4B5B79994200D1C6E042
S11314600024C7E01B78DBB2022B03D0032B45D04A
S11314700024BFE00B2800D8C2E0644A4E23D35CAA
S1131480DB43DBB24D24125D934201D00024B1E072
S1131490002A00D1B6E04C235C4AD35C022B18D05E
S11314A0802B1DD0012B05D031002800584B9847C4
S11314B000249FE0020055494C312800554B9847C1
S11314C0041E00D096E0514B19792800504B9847E0
S11314D090E001004D484C304F4B9847040089E0A0
S11314E0A0234A4AD3589B7B5B0701D4002481E0A4
S11314F010004C30494B984704007BE00300020085
S113150042494C312800464CA047041E72D13F4B3F
S1131510197928003E4B98476CE01B78DBB2062B08
S113152028D009D9082B55D0092B00D06CE00A2209
S1131530364B1A7001245DE0052B65D19023334AA4
S1131540D6583F2E20D90C33D2585C3B21002800BA
S1131550344CA047041E4DD02C4B9C215A58403289
S11315605A500C395A58403A5A5004315A58403259
S11315705A503FE0012106202B4B9847041E39D0D6
S11315802A4B9847002435E0204F9C23984632008C
S1131590F9582748274B98479422BB580433BB502B
S11315A00023043ABB504246BB50B3B2204A210048
S11315B028001C4CA047041E1CD0144B996C30000E
S11315C01D4B9847002901D1002E13D106220F4B41
S11315D01A700FE000230D4A083221002800114C34
S11315E0A047041E06D00922084B1A7002E0012409
S11315F000E00024200004BC9046F0BD0124F9E77B
S11316000024F7E70024F5E70024F3E72000002096
S113161055240000311000004D0F00008906000021
S1131620C90F0000BD230000110F0000C90600000F
S113163028000020615A0000B133000070B584B066
S113164004001500012902D0012004B070BD8022DD
S11316500F236B441A702A787F231340022B05D082
S113166060231340202B54D00020EEE76B78012B2D
S1131670F6D1A978EB781B020B43F1D12B796A7967
S113168012021A43BC4909798A420CD0BA49C97872
S11316908A4228D0B8494979002900D1D3E28A4244
S11316A02DD00020D1E7B54B19680B889BB2002BD5
S11316B0FBD00B88013B9BB20B80D5B229002000E4
S11316C0AF4B984729002000AE4B98470122AA4B04
S11316D01A70AA4B1A68138801339BB21380AA4B61
S11316E098470120B1E7D5B22900A54B98472900B6
S11316F02000A44B9847A54B98470120A5E7D5B2F5
S113170029009F4B9847290020009E4B98470120B1
S11317109BE76B78052B00D18DE11CD8022B76D08A
S11317200AD9032B00D1A2E0042B00D08DE2A22A17
S113173000D119E1002088E7012B00D085E201AB3C
S113174000221A8098328C498A5C5A702B78A22B1A
S113175011D0002079E7072B00D1E0E100D29EE10F
S1131760402B00D1F0E1802B00D06EE2A12A00D101
S11317700EE2002069E7A979EB791B020B43022BE7
S113178001D0002061E729796B791B020B437A4968
S113179009798B4201D0002057E7774B1B78032B44
S11317A009D0802201AB1A70022301AA290020006B
S11317B0774CA04749E7A978EB781B020B437F21BC
S11317C00B409A4203D1812201AB1A70ECE701224B
S11317D001AB1A70694B1B681A8892B2002AFBD0BD
S11317E01A88013A92B21A800B21634A11701A883E
S11317F0013292B21A8001A8664B9847002800D1A2
S113180023E75D4B197920005D4B9847CCE701AE87
S1131810082200213000604B984701233370933332
S1131820554AD35873602B78A22B01D000200CE7C3
S1131830AA79EB791B021343082B01D0002004E79B
S11318402A796B791B0213434B4A1279934201D0D4
S11318500020FAE601A8514B9847002800D1F4E68D
S1131860082301AA29002000494CA047EDE601AB5A
S113187000221A80993240498A5C5A702B78A22B34
S113188001D00020E1E6A979EB791B020B43022B7E
S113189001D00020D9E629796B791B020B43364924
S11318A0C9788B4201D00020CFE6334B1B78042B40
S11318B00FD0314B1B78052B0BD02F4B1B78042BEF
S11318C048D02D4B1B78052B44D0802201AB1A70D5
S11318D043E0A978EB781B020B437F210B409A422B
S11318E0EBD1012201AB1A7000219023224AD1507E
S11318F0224B1E6833889BB2002BFBD03388013BFC
S11319009BB233801C4B94229858996C244B984773
S113191000291DD10823184A1370338801339BB260
S113192033809423D358002B0CD113000832D97878
S1131930002320001B4EB047002800D185E6092271
S11319400D4B1A7001A8184B9847002805D17CE666
S11319500923E0E7812201AB1A70022301AA2900BE
S113196020000B4CA04770E6AA79EB791B021343C5
S1131970082B1BD0002068E620000020280400204B
S113198055240000A1240000DD090000D90900004D
S1131990112B0000C1090000735A0000C90900009E
S11319A0B1330000BD2300009D09000001AE0822F0
S11319B000213000A64B984780233370A5490B784B
S11319C00A3B1A00531E9A41737801208343134340
S11319D073709423CB58736030009F4B9847002852
S11319E000D132E69D4B1A6813889BB2002BFBD0C2
S11319F01388013B9BB21380964B1B78DBB20A2BF6
S1131A000ED00B2B13D0082B11D0138801339BB2AB
S1131A101380082301AA29002000914CA04714E652
S1131A20012101AB197001318A4B1970EDE70221D4
S1131A3001AB1970E9E7A12A01D0002005E6AA79D3
S1131A40EB791B021343012B01D00020FDE5814EED
S1131A5031792000834B984700229023F2507F4B2A
S1131A601A6813889BB2002BFBD01388013B9BB2EE
S1131A7013800721774B1970138801339BB21380AD
S1131A800F206844784B9847002800D1DDE50123F6
S1131A900F226A4429002000714CA047D5E5A12AF1
S1131AA001D00020D1E5002201AB1A80AA79EB799C
S1131AB01B021343022B01D00020C6E5654BD978E5
S1131AC020006A4B9847002811D001AB59780122B5
S1131AD00A435A7002221A7001AB1B78012B0CD0F6
S1131AE0022301AA290020005D4CA047ADE501A80E
S1131AF05F4B98470028EFD1A7E5584B1A68138825
S1131B009BB2002BFBD01388013B9BB213800221B4
S1131B10504B1970138801339BB21380E0E7A12A5C
S1131B2001D0002091E5AA79EB791B021343182B0D
S1131B3001D0002089E58833464AD258883B2900E1
S1131B402000474CA04780E5A12A01D000207CE575
S1131B50AA79EB791B021343012B01D0002074E511
S1131B609F333C4AD3581B795B0701D400206CE5B2
S1131B700F21694428003F4B9847002800D164E5B1
S1131B8001230F226A4429002000354CA0475CE55C
S1131B90AA79EB791B021343032B01D0002054E5EF
S1131BA0AA78EB781B021343DEB27F2232407F21F6
S1131BB08B4344D1931EDBB27D2B42D829796B79B8
S1131BC01B020B43234949788B4201D000203CE59A
S1131BD001AB5A701F4B597900292AD0002201AB5E
S1131BE09A702000214B9847002809D0202201AB8D
S1131BF01A70032301AA29002000194CA04724E5E8
S1131C0001A8012303707F2216406B461B7893437F
S1131C103343FF3A13436A461370174B98476B4696
S1131C2058700C4B597902236A462000134EB04772
S1131C30DFE701AE3000104B9847B070D9E70020C1
S1131C4003E5002001E50020FFE40020FDE4C04698
S1131C50735A000020000020B1090000280400206D
S1131C60112B0000552400006109000039240000F4
S1131C7079090000050A0000E9090000BD230000FD
S1131C808A1892B2914202D883899A4202D9408931
S1131C90121892B2100070478A1A92B2914202D37B
S1131CA083899A4202D94089121A92B2100070476D
S1131CB0838801E0C91A89B28B42FBD908007047B6
S1131CC0F8B505000C0011001E00D31A9BB2B242F5
S1131CD002D242899B1A9BB2AF889F4205D23A0036
S1131CE028000A4B984728823B00002B01D1002092
S1131CF0F8BD31002800064B98472968EA8850430C
S1131D0009182000034B98470120F1E7991C0000B3
S1131D10B11C0000615A000070B50400C28992B27F
S1131D20038A9BB2054DA8470500218A89B282B275
S1131D302000034B98472082280070BDC11C00007E
S1131D40811C000070B504000E00C589ADB2028A82
S1131D5092B2AB1A9BB2954202D242899B1A9BB2B1
S1131D60A2889A4213D0290020000B4B9847E2889E
S1131D70504323689C4660443100084B9847012235
S1131D8029002000064B9847E081012070BD207A8D
S1131D900028E8D1FAE7C046B11C0000615A0000EF
S1131DA0811C00000023C381038283885B009BB2F3
S1131DB0013B9BB28381DB434381012070470000D8
S1131DC070B5050000240FE0E31ADBB2002B1ED12E
S1131DD05A00D318DA00184B9B18002B2AD05B68E2
S1131DE0280098470134E4B2144B1B795A1C9442DE
S1131DF00FDA134A002A08D09C42E5D26200121975
S1131E00D1000E4B1B685B18E7E72300DEE70023D5
S1131E10E3E70A4C2000083033220021094DA8478B
S1131E2020000B301022FF21A84720001B30102275
S1131E30FF21A84770BDC046EC7D0000300400209F
S1131E4000000000735A000010B5024B9847024B83
S1131E50984710BDC11D0000952B000070B505000A
S1131E600C001600C868044B9847E368320001214F
S1131E702800984770BDC046AD2B0000F0B5D6468B
S1131E804F4680B583B000900139C8B2504B984793
S1131E90002800D191E04378022B05D0002003B044
S1131EA00CBC91469A46F0BDC1798B0628D5012217
S1131EB0484C1201237A1025AB43134323724B067B
S1131EC020D50122434952010B7A2024A343134312
S1131ED00B72050009358278C3781B0213438146CF
S1131EE099444D4563D26B780B2B0DD001239A4650
S1131EF06B78042B63D14B465C1BA4B200271FE014
S1131F000022D5E70022DDE7EB789A462B78ED181E
S1131F10EEE7FB1ADBB2002B26D15A00D318DA0005
S1131F202D4B9B18002B4CD09B6822002900009855
S1131F3098470600082801D9844217D20137FFB216
S1131F400197244B1B795A1C974228DA234A002A0A
S1131F5008D09F42DDD27A00D219D1001D4B1B68F4
S1131F605B18DFE73B00D6E70023DBE7002292455E
S1131F700DD9AB78D318DBB21649C918C97AFF2931
S1131F8021D11449CB18DF720132D2B2EFE71148E4
S1131F901B303B0032002900114CA047AD190D4BFA
S1131FA01B790133019A9A429BDB002077E70D4BA2
S1131FB0002B0AD09847012071E700206FE700202A
S1131FC06DE700206BE7002069E7012067E7C04662
S1131FD0990E000030040020EC7D00000000000099
S1131FE07D3200002D02000070B504000D008B78D6
S1131FF0C87800021843020AC0B20F2A51D89300CD
S11320002E49CB589F462E4B984702001223290095
S113201020002C4CA04770BD2B4B002B43D098477D
S1132020002801D10020F6E78278C3781B0213430D
S1132030020029002000234CA047ECE7022A07D025
S1132040224B002B31D09847002804D10020E2E72E
S11320501F4B9847F8E78278C3781B0213430200AA
S113206029002000174CA047D5E72B79697909028C
S11320701943184B9847002819D003780200290007
S11320802000104CA047C6E7134B002B11D09847F3
S1132090002810D00378020029002000094CA04732
S11320A0B9E70020B7E70020B5E70020B3E7002038
S11320B0B1E70020AFE70020ADE7C046607D000037
S11320C0910E0000112B0000000000000000000031
S11320D0990E0000A50E00000000000010B50028B5
S11320E004D1054B1878054B984710BD024B18785E
S11320F0034B9847F9E7C046C4000020C52D0000F3
S1132100B92D0000034B1878FF38431E9841C0B224
S11321107047C046C4000020F8B50600244B984719
S1132120051E01D02800F8BD224F380008303322A4
S11321300021214B9847214C0434201D204B984703
S1132140FC63204B002B03D01A4C201D98472060C1
S113215000240EE0E31ADBB2002B1DD15A00D31881
S1132160DA00194B9B18002BDCD01B68984701340C
S1132170E4B2104B1B795A1C94420FDA114A002A1C
S113218008D09C42E6D262001219D100094B1B68A8
S11321905B18E8E72300DFE70023E4E7074B1E7042
S11321A030000A4B98473000094B98470125B9E79E
S11321B00521000030040020735A0000C4000020F0
S11321C0A51D000000000000EC7D00001D2D000096
S11321D0B92D0000F0B585B005000E004378032B3F
S11321E000D186E01CD9042B3DD0052B00D0A6E0FD
S11321F05D4B1B7ADB0700D4ABE05B4B1A7A0421FE
S11322008A431A72DC6B002E47D0201D2900574BDD
S11322109847002E00D09CE023680120984798E05E
S1132220022B00D08BE0504B1A7A01218A431A7298
S11322301A7A01318A431A7200225A721A7A0231C6
S11322408A431A72DC6B002E09D0201D2900474BEB
S11322509847002E7DD123680120984779E000201B
S113226023689847F1E7404B1B7ADB0771D53E4B57
S11322701A7A04210A431A72DC6B002E09D0201D3D
S113228029003A4B9847002E63D1236801209847D0
S11322905FE0002023689847F1E70020236898470F
S11322A0B3E7E31ADBB2002B21D15A00D318DA00CA
S11322B02F4B9B18002B05D05B69002B02D028788C
S11322C0696898470134E4B2274B1B795A1C94423D
S11322D011DA284A002A08D09C42E2D2620012197C
S11322E0D100214B1B685B18E4E72300DBE70023E4
S11322F0E0E70024E8E71C4B1B7A5B0729D51A4C5E
S1132300237A04229343237201AF08320021380058
S1132310194B98472B783B7005237B70E46B002E98
S113232009D0201D01A9114B9847002E11D1236813
S1132330012098470DE0002023689847F1E70A4BF5
S1132340DC6B002E07D0201D2900084B9847002E77
S113235005D005B0F0BD002023689847F3E7236853
S113236001209847F5E7C04630040020451D0000D1
S1132370EC7D000000000000735A000070B50C00F2
S11323800A4B1D788A787F231340072B01D900203C
S113239070BD074B997A2000064B98470028F7D068
S11323A021002800044B9847F2E7C046C4000020EF
S11323B03004002009320000212E0000F8B5CE467A
S11323C0474680B5194800787F250D40CE096F0037
S11323D0174CE419A4192834E478E40704D5002040
S11323E00CBC90469946F8BD114CE419A419282751
S11323F0B946A1444C46E4780127BC4667463C43B1
S113240027004C46E7700B4CA0470028E8D16D002C
S1132410074B5D19AE192836F37801229343F37004
S1132420F37803329343F370DAE7C046C400002024
S113243030040020F52E00007F230B40CA095B0006
S11324400349C91889182831C878C007C00F7047D4
S11324503004002070B50F4B18787F240C40CD0950
S113246062000D4B9B185B192833DB789B0700D562
S113247070BD0A4B98476300074CE418641928346C
S1132480E37802221343E370E37801221343E370F9
S1132490EEE7C046C400002030040020D12F000025
S11324A070B50F4B18787F240C40CD0962000D4B9A
S11324B09B185B192833DB789B0700D470BD0A4B4B
S11324C098476300074CE41864192834E37802221F
S11324D09343E370E378013A9343E370EEE7C04635
S11324E0C400002030040020F52F00007F230B409F
S11324F0CA095B000349C91889182831C8788007BC
S1132500C00F704730040020F0B5C64600B582B055
S113251004000D000020C94B98472B785B069B0FE5
S1132520022B00DDB4E12B7860221A40402A0CD043
S11325302B78DB06DB0E012B00D1CCE0002B11D075
S1132540022B00D112E10020A3E1BD4B002B00D1EE
S1132550A3E11E001800B94B98472A00012120006E
S1132560B04796E1202A0AD0002A00D09BE16B787C
S1132570092B00D999E19B00B24AD3589F462B7985
S11325800F2B00D98BE1B04AD318DB7AAF4A002A6B
S113259013D0AD4A12799A420DD95A00D318DA00F1
S11325A0A94B19688918002900D17AE12A00200072
S11325B0A74B98476DE19B1ADBB2002B05D15A005B
S11325C0D318DA00A3498918EDE70021EBE72800C6
S11325D0A14B9847A9782000A04B98479A4A137AB0
S11325E002210B431372012053E1974B5B7A6A4635
S11325F006321370012329002000994CA0470120C2
S113260047E1AE78904B5B7ADBB29E4205D08E4BAD
S11326105B7A002B09D1002E13D18B4B5E722900FB
S11326202000904B9847012033E120008E4B9847BF
S1132630854FBB7A984620008C4B98474346BB7223
S1132640E9E7310020008A4B9847002800D120E1B7
S1132650E3E729002000874B98471AE1AA78EB7832
S11326601B021343012B01D0002012E1764A117A98
S113267007330B431372290020007A4B984701203B
S113268007E1AA78EB781B021343012B01D0002049
S1132690FFE06D4A137A08218B431372290020004E
S11326A0704B98470120F4E0674B1A7A93060ED5D5
S11326B0012312070DD4002213436A460632138005
S11326C0022329002000664CA0470120E1E00023FA
S11326D0EFE70222F0E72B790F2B00D9E7E05A4A03
S11326E0D318DB7A594A002A2BD0574A12799342DD
S11326F025D25A00D318DA00534B196889180029D7
S113270000D1D6E02A002000514B9847002800D081
S1132710BFE02B7860221A4200D0BAE06B780A3B03
S1132720DBB2012B00D9B4E0444B98476B780A2BF9
S113273011D0290020004B4B98470120A9E09B1A97
S1132740DBB2002B05D15A00D318DA0041498918AD
S1132750D5E70021D3E76B469A1D0023137001339C
S1132760290020003E4CA047012092E029796B7992
S11327701B020B43D9B27F200840CB09072800D99C
S113278099E04000304E3018C318DB7E2F480028F3
S113279014D0307983420FD25800C318D800366859
S11327A03618002A14D0002E00D186E02A00310009
S11327B02000274B98476CE01B1ADBB2002B05D195
S11327C05800C318D800234E3618EAE70026E8E775
S11327D06B78012B12D0002B03D0032B0ED00020DA
S11327E057E02000244B98476B469A1D1080022323
S11327F0290020001A4CA04701204AE0A878EA7872
S11328001202024304D1012B13D020001B4B984722
S1132810002E54D02A00310020000D4B9847002090
S1132820064B98472C23084AD35CDB072AD50120A2
S11328302FE02000124B9847EAE7C046AD2B00007A
S113284000000000A07D0000300400200000000013
S11328505D1E0000EC7D0000B92B0000B12F0000CC
S1132860112B0000CD2A0000F12E0000C11D000034
S11328707D1E0000E91F0000ED2400005524000027
S1132880A1240000290020000E4B9847012000E0FD
S1132890002002B004BC9046F0BD0020F9E70020FF
S11328A0F7E70020F5E70020F3E70020F1E7002038
S11328B0EFE70020EDE70020EBE70020E9E7012047
S11328C0E7E7C046CD2A000030B585B05B4B98479A
S11328D0002808D105B030BD01AC2078584B98478A
S11328E02279584B9A72574BDD6B2C0008CC002090
S11328F0984701A92000544B984704002B680120F5
S11329009847002CE6D001AB5B78082BEBD89B00F2
S11329104E4AD3589F4601AB1878494B98474C4BC5
S1132920002BE0D09847DEE7464B1A7A01240121B8
S11329300A431A722B22995CA1439954995C04208E
S1132940814399540132995CA1439954995C814320
S1132950995401AB187802A93E4B98470028C2D17C
S113296001AD287800213C4CA04728788021A0475D
S1132970B9E701AB19797F220A40CC095000314BE9
S11329801B181B192833D8780125A843D870D87888
S11329900335A843D870002A12D05200294B9A1844
S11329A01219D37E2D4A002A13D0264A1279934253
S11329B00DD25A00D318DA00224B1B689B180FE083
S11329C001A84279039B0078254CA0478BE79B1A0A
S11329D0DBB2002B0ED15A00D318DA00214B9B181E
S11329E0002B00D176E71C6901A84279039B00788B
S11329F0A04778E70023F3E7124B1B7ADB0700D4E8
S1132A0071E7194B002B00D16DE70E4B187A0007C4
S1132A10C00F154B984766E70A4B1B7ADB0700D4B7
S1132A2061E7124B002B00D15DE798475BE7029BFF
S1132A30002B00D157E70398984754E7F53100007D
S1132A40491E000030040020191D0000C87D00004C
S1132A503902000009250000D12F00000000000009
S1132A60DD2B0000EC7D0000450200005502000053
S1132A7070B50400124B40339989DB89C91A89B2B5
S1132A800D1C402900D94025ADB240230C4AD35631
S1132A90002B08DB0021002D10D100222B00200088
S1132AA0084CA04770BD002D01D18021F3E7100030
S1132AB02A00816C044B98478021ECE7004AEDE73B
S1132AC070040020BD230000615A0000F8B5060020
S1132AD00D000C4F3C004034082220000A4B98475C
S1132AE00023BB64E381A3810023EB56002B06DBA8
S1132AF08021002300223000044CA047F8BD0021AF
S1132B00F7E7C04670040020615A0000BD230000AE
S1132B10F0B583B001900E0017000093194C250006
S1132B20403508222800184B9847A7640023EB81FE
S1132B30B279F3791B0213431A1C0098834200D91B
S1132B40021C91B20F4B40339A81B279F3791B0284
S1132B50134307D0002901D0002F11D001980B4B4B
S1132B60984709E00023F356002B07DB802100235C
S1132B7000220198064CA04703B0F0BD0021F6E7FF
S1132B800020F9E770040020615A0000712A000057
S1132B90BD23000010B51422002102484030024B2E
S1132BA0984710BD70040020735A0000014B18654B
S1132BB07047C0467004002070B50100054D2C001C
S1132BC0403408222000044B98470023AB64E3817F
S1132BD0A38170BD70040020615A000070B5040028
S1132BE01D00C9094023314AD35CDB098B4212D052
S1132BF0002D55D12E4B002B02D0110040319847A7
S1132C002A4B1B6D002B4DD0284A40320321200053
S1132C109847012070BD4023244AD356002B07DB7C
S1132C201300906C00283FD02A001900214B9847CC
S1132C30AAB21E4801004031CB89D3189BB2CB8184
S1132C40826C52198264CA88934201D03F2D23D8E2
S1132C50164B1B6D002B12D0144A40320221200067
S1132C60984700280FD04023104AD356002B08DB86
S1132C7080210023002220000F4CA047CAE7012036
S1132C80EFE70021F5E7002120000C4DA847802143
S1132C902000A8470120BDE72000094B9847B9E769
S1132CA00020B7E70120B5E70020B3E77004002057
S1132CB0D92D0000615A0000BD230000D12F00006F
S1132CC0712A000010B5104B5868104C2040C022E7
S1132CD09205010011435960596921400A435A6120
S1132CE00B4A11211170023151720A4A1A60596853
S1132CF0094A1140802292020A435A605A68920B90
S1132D009103596010BDC046C4040020FFFFFF8F2B
S1132D1000510041C4050020FF3F00F030B5214AB6
S1132D20137801210B4313701E4B9B78DB07FBD5F3
S1132D301C4B9B78DB07FBD41B4B1968880C1F22A8
S1132D401040184B1C8D1F25AC43204318854C0B99
S1132D50188D22409201154C204002431A85C80D5B
S1132D601A8D072101400903114802400A431A85BC
S1132D70DA7803210A43DA70DA780C210A43DA702C
S1132D800C4A5A6200221A8106321A70054B9B784B
S1132D909B07FBD4034B998B9A8B0A439A83082293
S1132DA01A8330BD00500041246080003FF8FFFFCB
S1132DB0FF8FFFFFC40400208022014B1A6070477C
S1132DC000E100E08023034AD350BFF34F8FBFF3E9
S1132DD06F8F704700E100E00B785B0602D14B78FF
S1132DE0052B0ED00A4B0B4A1A6059680A4A114047
S1132DF0802292020A435A605A68920B91035960E6
S1132E0070478A78853B1343DBB2044A9372E9E73F
S1132E10C4040020C4050020FF3F00F0005000411E
S1132E20F0B58E787F24344076B2F70F0022062A5C
S1132E300CD8D31C012098400D794B791B022B43ED
S1132E405B055B0D984201DA0132F0E7072A26D0D0
S1132E506300DF193F01224BDF19786807231A400A
S1132E601207204B184002437A6064011E4B9C46B3
S1132E706444002E1EDBCB789B079B0F0133227822
S1132E800721194007239A4313000B43237011238E
S1132E902371637A0122134363720120F0BD087920
S1132EA04B791B0203435B055B0D10488342CFD96A
S1132EB00020F3E7CB789B079B0F0133227807218F
S1132EC01940090170239A4313000B4323702223F2
S1132ED02371637A0222134363720120DEE7C04642
S1132EE0C4040020FFFFFF8F00510041FF030000D6
S1132EF070470000F0B57F20084049B2CF0F45016C
S1132F00274CA44665444400E4192401254EA251EB
S1132F10002801D1002A17D000292BDB4000C0195A
S1132F2002012048801842689B041B091E490A407C
S1132F301343436043689B0B9A03426040232B7105
S1132F403C3BEB710120F0BD002BE5D1174A127810
S1132F50D2099742E0D03200144C34607668124CA7
S1132F6026408024A402344354605468A40BA6036E
S1132F705660D1E74000C01900010A4A10184168A0
S1132F80094A0A40426042689B049B0C920B9203DC
S1132F901343436080236B71783BEB71D2E7C046E7
S1132FA000510041C4040020FF3F00F0C40500208C
S1132FB010B5002300228021034CA047034B0122BB
S1132FC09A831A8310BDC046F52E000000500041BC
S1132FD07F230B405B01064A9446634449B20029AF
S1132FE002DB10225A71704720225A71FBE7C04657
S1132FF0005100417F230B405B01064A9446634421
S113300049B2002902DB11221A71704722221A7177
S1133010FBE7C04600510041F0B5DE4657464E4638
S11330204546E0B585B02D4B1B8C9BB298460024D9
S113303022E062012A4B9B1810335B689B049B0CB3
S11330409A4680235B422343DBB29B4601AF0C22AA
S113305000213800234B984707237B705B463B7164
S11330605346BB60012138001F4B984702234A4650
S1133070D37112E00134E4B2072C28D825000123CF
S1133080A34042461342F5D06301184A914699443D
S11330904B46DE79F6B2B307CBD4F307EAD56D011C
S11330A00F4B5D196E68B604B60C01AD0C220021FD
S11330B028000C4B984707236B702C71AE600121DC
S11330C02800094B984701234A46D371D2E705B03B
S11330D03CBC90469946A246AB46F0BD0050004128
S11330E0C4040020735A0000D5210000005100419F
S11330F030B585B0394B9A8B1C8B144063070FD4C1
S1133100E3071DD4E3062ED423073DD40823FF335D
S1133110324AD35CDB064BD4314B984705B030BD03
S113312004222E4B9A8301AD0832002128002D4B36
S1133130984703236B70012128002B4B9847DFE746
S1133140264B01229A830F329A831A8301AD043AE3
S113315000212800234B984704236B700121280089
S1133160214B9847CEE71D4B10229A839A8201ADDA
S1133170043A002128001B4B984705236B7001215A
S11331802800194B9847BFE7144B08229A83093249
S11331909A82164B984701AC0C2200212000114B57
S11331A0984701236370012120000F4B9847ADE736
S11331B001AC0C22002120000A4B984706236370BF
S11331C00B4A02AB03CA03C301212000064B9847F4
S11331D011210823FF33014AD1549DE700500041D7
S11331E019300000735A0000D5210000C52C0000DE
S11331F0C405002010B5034B9847002800D00120D7
S113320010BDC04605210000027943791B02134317
S11332105B055B0DC2789207920F022A0CD019D875
S1133220012A21D1022904D0134A9A421ED3012033
S11332301BE08022D200F8E7022903D0402B17D8E4
S1133240012012E080229200934201D000200CE081
S113325001200AE0022904D040229A420AD3012024
S113326003E08022D200F8E7002070470020FCE74A
S11332700020FAE70020F8E7FF03000030B58A18C1
S113328001E00C78091991420AD24C78052CF8D146
S11332908D787A342C4064000419ED096355F0E705
S11332A030BD0000002243088B4274D303098B42D3
S11332B05FD3030A8B4244D3030B8B4228D3030C02
S11332C08B420DD3FF22090212BA030C8B4202D3A4
S11332D01212090265D0030B8B4219D300E0090ACC
S11332E0C30B8B4201D3CB03C01A5241830B8B42D5
S11332F001D38B03C01A5241430B8B4201D34B03BE
S1133300C01A5241030B8B4201D30B03C01A524122
S1133310C30A8B4201D3CB02C01A5241830A8B42A7
S113332001D38B02C01A5241430A8B4201D34B0290
S1133330C01A5241030A8B4201D30B02C01A5241F4
S1133340CDD2C3098B4201D3CB01C01A52418309A8
S11333508B4201D38B01C01A524143098B4201D3E2
S11333604B01C01A524103098B4201D30B01C01A0D
S11333705241C3088B4201D3CB00C01A5241830887
S11333808B4201D38B00C01A524143088B4201D3B4
S11333904B00C01A5241411A00D201465241104614
S11333A07047FFE701B5002000F0F0F802BDC04609
S11333B00029F7D076E7704703460B437FD40022F9
S11333C043088B4274D303098B425FD3030A8B42B5
S11333D044D3030B8B4228D3030C8B420DD3FF221F
S11333E0090212BA030C8B4202D31212090265D0ED
S11333F0030B8B4219D300E0090AC30B8B4201D3A0
S1133400CB03C01A5241830B8B4201D38B03C01AE6
S11334105241430B8B4201D34B03C01A5241030B5D
S11334208B4201D30B03C01A5241C30A8B4201D30E
S1133430CB02C01A5241830A8B4201D38B02C01AB9
S11334405241430A8B4201D34B02C01A5241030A30
S11334508B4201D30B02C01A5241CDD2C3098B4215
S113346001D3CB01C01A524183098B4201D38B0192
S1133470C01A524143098B4201D34B01C01A524135
S113348003098B4201D30B01C01A5241C3088B427A
S113349001D3CB00C01A524183088B4201D38B0065
S11334A0C01A524143088B4201D34B00C01A524107
S11334B0411A00D201465241104670475DE0CA0FDE
S11334C000D04942031000D34042534000229C469E
S11334D003098B422DD3030A8B4212D3FC228901A8
S11334E012BA030A8B420CD3890192118B4208D37E
S11334F0890192118B4204D389013AD0921100E0E0
S11335008909C3098B4201D3CB01C01A52418309F3
S11335108B4201D38B01C01A524143098B4201D320
S11335204B01C01A524103098B4201D30B01C01A4B
S11335305241C3088B4201D3CB00C01A52418308C5
S11335408B4201D38B00C01A5241D9D243088B421B
S113355001D34B00C01A5241411A00D201466346BE
S113356052415B10104601D34042002B00D5494222
S1133570704763465B1000D3404201B5002000F061
S113358005F802BD0029F8D016E770477047C04619
S113359070B500220C4B04000D0002F0E9F800287D
S11335A004D12000290001F05DFF70BD064B00220C
S11335B02000290001F040FC01F054FF80231B0689
S11335C09C466044F1E7C0460000E041F8B5574628
S11335D04E464546DE46E0B54702460088467F0A29
S11335E0360EC40F002E47D0FF2E24D0FB008027B8
S11335F0FF041F43002399469A467F3E43465D02DB
S11336005800DB0F6D0A000E984643D0FF283BD0CC
S1133610EB0080250022ED041D437F383618731C0F
S113362041469B464B46614013430F2B64D8754873
S11336309B00C3589F46002F42D108239946063B5E
S1133640FF269A46DAE74146022A28D0032A00D107
S1133650CEE0012A00D0ACE0114000200022CCB220
S11336604002D205400AE407104320433CBC904684
S11336709946A246AB46F8BD002F15D104239946BE
S1133680033B00269A46B9E7FF200222002DC5D04D
S11336900322C3E7002D19D100200122BEE7012433
S11336A0FF220C400020DBE7380002F06BF876269E
S11336B0431F9F4000237642361A99469A469DE757
S11336C00C239946093BFF269A4697E7280002F007
S11336D059F8431F9D4076235B42181A00229DE748
S11336E080200024C003FF22BAE73D005246ABE726
S11336F03D0021005246A7E73B0C9C462A04120CCD
S11337002B0C1400604665463F043F0C7C43424347
S11337105D437B43270C9B18FF18BA4203D98023CF
S11337205B029C46654424043A04240C1219930158
S11337305C1EA3413F0C920E7D191A43AD01154343
S11337402B0104D501235E466A081D40154332004F
S11337507F32002A25DD6B0704D00F232B40042B76
S113376000D004352B0103D53200274B80321D4095
S1133770FE2A94DC0124A801400AD2B20C406FE76F
S11337808020C003074207D0054205D128434002E8
S1133790400A4446FF2263E738434002400AFF22BE
S11337A05EE70124A31A1B2B05DD0C400022002038
S11337B056E75E46CBE72A002020DA40C31A9D4034
S11337C02B005D1EAB4113435A0704D00F221A404D
S11337D0042A00D004335A0104D5012401220C40E8
S11337E000203DE701249B01580A0C40002237E7E2
S11337F080200124C00328434002400A0C40FF22D9
S11338002EE7C046047E0000FFFFFFF7F0B54F46E9
S1133810D64646464400C0B5C20F47024802400A95
S1133820844666467B0A4800C90F9A46240E150052
S1133830DB00000E8946F600FF2800D18FE001214D
S11338404F464F403900914266D0221A002A00DCCC
S11338509DE000283DD1002E00D18BE0511E0029AF
S113386000D0B5E001249B1B5A0144D59B019F095C
S1133870380001F087FF05388740844200DD96E078
S1133880041B3A0020200134E240041BA7403B0003
S11338905F1EBB41002413435A0704D00F221A4071
S11338A0042A00D004335A0127D50134FF2C00D157
S11338B079E001229B015B0AE4B22A405B02E40541
S11338C0580AD207204310431CBC90469946A2468E
S11338D0F0BDFF2CE0D08021C9040E431B2A7BDC01
S11338E031002020D140821A9640721E96410E4328
S11338F09B1B5A01BAD45A07D0D10122DF082A40AF
S1133900FF2C33D1002F00D1A8E08023DB033B43FD
S11339105B025B0AFF24D1E7211A00294CDD002851
S11339202AD0FF2CB8D08020C00406431B2900DD18
S1133930AFE030002027C840791A8E40711E8E41B6
S113394006439B195901D6D50134FF2C00D185E0DB
S113395001227A491A405B080B4013439CE7002E6E
S113396000D070E76BE73B1EC5D100227B025B0AE7
S1133970E4B2A3E714008FE7002E4DD0481E0028C0
S113398057D19B1901245A01B5D50224E0E7002A36
S113399025D1621CD2B2012A72DD9F1B7A0135D572
S11339A0F71A0D0064E7012200232A4086E73B0052
S11339B0634A241A13406FE700296CD1611CC8B212
S11339C001284EDDFF2949D09B195B080C0063E7F1
S11339D0FF2A41D00A0081E701269B1B89E7002CBE
S11339E01CD0FF2821D08024E404524223431B2A04
S11339F000DD96E01C002025D440AA1A93405A1EEC
S1133A0093412343F31A04000D002DE7002F00D047
S1133A102EE700220024A9E70C003DE7002B58D034
S1133A20D243002AEED0FF28E1D13300FF240D0059
S1133A3032E7FF2910D0010078E7002B6ED0FF2475
S1133A40002E00D128E780225146D203114203D030
S1133A506146114200D13300FF241DE7FF240023F7
S1133A602CE7002CE9D1002B63D0002E00D113E702
S1133A709B195A0100D43EE7314A0C0013400BE76E
S1133A80002C1ED1002B2FD1002E4FD033000D005F
S1133A9002E7012655E7002C1FD1002B43D0C94370
S1133AA000290BD0FF2839D01B2944DC1C00202717
S1133AB0CC40791A8B40591E8B4123439B19040037
S1133AC040E7002B1AD1002E24D180270022FF03C7
S1133AD01BE7330004000D00DEE6FF281ED080241F
S1133AE0E40449422343DFE7002E00D1D4E69F1BC0
S1133AF07A0100D437E7F31A0D00CDE6FF24002E37
S1133B0000D1C9E680225046D2031042A4D06046B8
S1133B101042A1D133000D00FF24BDE63300FF2481
S1133B20BAE601236EE733000400B5E6002700225D
S1133B301CE73300B0E60123C0E7C046FFFFFF7D6A
S1133B40FFFFFFFB41024300C20F490A1B0E002086
S1133B507E2B0DDD9D2B0CDC802000040143952B76
S1133B600ADC9620C31AD9404842002A00D1080032
S1133B707047034BD018FBE7963B9940F4E7C046E7
S1133B80FFFFFF7F70B5002830D0C317C4185C4016
S1133B90C50F200001F0F6FD9E231B1A962B0DDCA9
S1133BA09622D21A94402A006402640ADBB26402A8
S1133BB0DB05600AD2071843104370BD992B19DC4A
S1133BC09922D21A002A29DD94402200144C144070
S1133BD0510704D00F210A40042A00D004346201A2
S1133BE013D4A401640ADBB22A00E0E70022002314
S1133BF00024DCE705222100121AD140B922D21A8E
S1133C009440621E94410C43DAE7054B2A001C40A1
S1133C109F23A4011B1A640ADBB2C8E72200D5E77C
S1133C20FFFFFFFB10B5041E27D001F0ABFD9E2360
S1133C301B1A962B0ADC9622D21A94406402640A58
S1133C40DBB26402DB05600A184310BD992B17DC54
S1133C509922D21A002A27DD94402200134C1440E2
S1133C60510704D00F210A40042A00D00434620111
S1133C7012D4A401640ADBB2E3E700230024E0E7E2
S1133C80B9222100D21A91400A00511E8A4105210D
S1133C90091ACC401443DBE7044B1C409F23A401C6
S1133CA01B1A640ADBB2CCE72200D7E7FFFFFFFB55
S1133CB0F8B54546DE4657464E460C03E0B54E0081
S1133CC0C90F88460D00610A440F0C43C70019034D
S1133CD05800DB0F9B464B0A510F0B43760D400DEA
S1133CE01900D200D84500D1AEE0351A002D00DC11
S1133CF0F6E000280FD1134300D1DBE06B1E002B4C
S1133D0000D037E1BA1A9742BF41641A7F42E41BDC
S1133D100126170024E0C64B9E424DD080231B048D
S1133D201943382D00DD07E11F2D00DD38E1202087
S1133D30431B9A460B00504683409946130048465D
S1133D40EB401843030050468240501E8241E94034
S1133D501A43BA1A611A9742A441170064420C1B11
S1133D60230262D56402650A002D00D1DFE0280039
S1133D7001F008FD0300083B1F2B00DDD2E02022E8
S1133D803C00D21A9D40D4409F4025439E4200DD12
S1133D90C4E09E1B731C1F2B00DDF1E020223800C1
S1133DA02900D21AD840914097402C000143781E34
S1133DB08741DC4000260F437B0709D00F233B409B
S1133DC0042B05D03B1DBB42BF417F42E4191F00B9
S1133DD023022CD5964B01369E4200D19AE04546EB
S1133DE0944BFF081C406007760564020743240BCC
S1133DF0760D00212403230B0C0D8F4A24051C434C
S1133E001440330523435B00ED075B082B43380064
S1133E1019003CBC90469946A246AB46F8BD6446A0
S1133E20044300D111E2040067467B07C6D145462E
S1133E306007FF080743E4087D4B9E4230D024030B
S1133E407605240B760DD4E7331A9A46002B78DDD9
S1133E50002831D076488642AED080200004014349
S1133E605346382B00DCE9E00A43511E8A41002105
S1133E70D219BA42BF4109197C4217000C19230216
S1133E80D3D56B4B01369E4200D13AE10120694BF8
S1133E901C407B0807401F43E007074364088BE787
S1133EA023003B4300D1CBE18022120314432403BB
S1133EB0240B9EE72E007FE70800104300D1B4E0F6
S1133EC0581E002800D0DEE0BA18BA429B4164189C
S1133ED05B42E418170001262302A6D50226D5E783
S1133EE0002D6ED1701C4005400D012800DCF9E066
S1133EF0B81A844687428041E51A40422D1A2802A6
S1133F0000D489E0D71BBA4292411C1B5242A51A25
S1133F10D84629E74546002400276AE7454CF61AA7
S1133F202C4049E73D002838854000272EE738001B
S1133F3001F028FC20301DE70A43511E8A4100216C
S1133F4007E7002B00D0F3E0701C43055B0D012B49
S1133F5000DCADE0364B984200D1D1E0BA18BA4249
S1133F60BF4164187F42E419E70752081743640805
S1133F70060021E72E48854200D193E01D00D0E6DB
S1133F8029001F3EF140202B00D18DE04022D31A9E
S1133F909D402F437D1EAF4100240F43002644E77C
S1133FA02B000800203BD8400300202D00D17DE0E9
S1133FB04020451BA9400A43511E8A4100211A434F
S1133FC0C7E6002E50D01A4EB04257D080266B421E
S1133FD09946360434434B46382B00DDD6E01F2B7C
S1133FE000DD35E12026F51A2600AE40B2463E003B
S1133FF0DE40AC46350056462E436546AF407D1E36
S1134000AF41DC403743D71BBA4292410C1B5242AA
S1134010A41A0600D846A3E6644667462C4300D09B
S1134020A2E600250026002706E71E00C4E6C046D7
S1134030FF070000FFFF7FFFFFFF0F801F2B63DCE4
S11340402020C31A080098409C468346534610001B
S1134050D84003005846184363469A40531E9A4179
S113406053460243D94003E726003E4306D0EB43C0
S11340709946002BC7D0944EB042ACD10C00170027
S11340800600D84698E6904B9A450BD08246E7E660
S1134090002800D09EE01800104300D1E9E01C0085
S11340A01700D846884E87E6002572E7002182E78C
S11340B023003B43002E00D0ABE0002B00D1E7E00F
S11340C00B00134300D177E6BA18BA42BF41641813
S11340D07F42E419230200D4F2E07C4B17001C4019
S11340E0060069E620003843002ED1D100285BD1B8
S11340F01C00144300D1A8E01C001700D8465BE65E
S113410006000024002797E650460B002038C340E1
S113411099465346202B00D195E0402350461B1A64
S113412099400A43511E8A414B4600211A439FE697
S1134130002E30D126003E4367D0DB439A46002B45
S11341401CD0614EB04260D05346382B00DD96E05F
S11341501F2B00DD9FE02026F31A26009E409C467C
S1134160B34653463E00DE4033005E461E4363467C
S11341709F407B1E9F415346DC403743BF18974204
S1134180924164185242A418060078E627437C1E24
S1134190A741002437E74C4EB04236D080265B421C
S11341A036049A463443CFE71800104300D103E69F
S11341B0B81A84466745AD41E01A6D42401B0502BA
S11341C000D42CE6D71BBA4292411C1B5242A41ABB
S11341D0D846F1E51800104300D163E7F8086707F3
S11341E007438020E4080003044208D0DD080542A8
S11341F005D1D208590711430F002C00D8467B0F74
S1134200E4001C43FF00304ED6E50C001700060006
S1134210D2E5002B38D00B00134300D142E7F80855
S1134220670707438020E40800030442E7D0CB0873
S11342300342E4D1D208490711430F001C00DEE712
S113424000270024D5E500216BE700250027F3E5CE
S11342504E462500203EF5404B462E00202B2DD007
S11342604025ED1AAC4027437C1EA7410024374368
S1134270C9E6802400252403134E0027DCE52743E8
S11342807C1EA741002479E70C0017000E4E93E52D
S11342900C00170090E556462300203EF340994653
S11342A05346202B0ED0402356469B1B9C4027434D
S11342B07C1EA7414B4600241F435FE70024D2E73E
S11342C01700B2E50024F2E7FF070000FFFF7FFFBD
S11342D0F0B557464546DE464E46E0B54C000E0363
S11342E087B0834692461D008046360B640DCF0F7F
S11342F0002C4FD06F4B9C4235D08023420F1B04BF
S1134300F600134333439946C30098466A4B00268C
S11343109C460023644403932B031B0B9B466B00B6
S1134320ED0F50465B0D01955ED0624A934253D027
S11343305A46D1008022400F120402430A43934696
S11343405246D1005C4A94460022634438006840D7
S113435084460290E41A16430F2E00D9B4E0574B5A
S1134360B6009B599F460300334399466CD1002302
S11343709846023308260393CEE7CB464146039A78
S11343800197022A65D1019B4A4C9C4600230022D6
S113439098466BE00300334399464ED0002E00D17B
S11343A0BCE1300001F0EEF903000B3B1C2B00DDF7
S11343B0ACE11D22D31A5A460100DA4008398E4076
S11343C01300334399465B468B40984600233C4C8C
S11343D00026241A03939FE751465A46114329D1D4
S11343E0002293460232B1E7594601431ED05B4690
S11343F0002B00D19EE1584601F0C4F903000B3BA9
S11344001C2B00DD8FE102005946083A91408B468F
S11344101D21CB1A5146D9400B0059460B43514636
S11344209B469140264B00221B1A8FE70023012252
S11344309B468BE75146032288E7002398460133C5
S113444004260024039367E70323B14603930C2651
S113445062E7032A00D15CE2019B012A00D0E4E177
S113446013409C4600230024002298460021120396
S1134470130B0A0D12051A432305124C4046224021
S1134480134362465B00D2075B081343190007B06D
S11344903CBC90469946A246AB46F0BD0023802220
S11344A09C4612039846034CE0E70023014C00228B
S11344B09846DBE7FF07000001FCFFFF447E000095
S11344C00DFCFFFFFFFF0F80D94500D939E100D172
S11344D034E1002346464D469A46013C5B460A0EAB
S11344E01B021A430B02170C039313041B0C390011
S11344F0280090460193FEF7D5FE0200019B8346F7
S11345005A43280039009146FEF752FF350C09043E
S11345100D43A9450DD95B464544013BA84500D947
S11345203AE1A94500D837E102235B429C46454461
S1134530E3444B46EB1A390018000493FEF7B2FE2D
S1134540019B05004343390004989946FEF730FF68
S1134550330409041B0C0B43994509D943446A1ECF
S1134560984500D91AE1994500D817E1023D434422
S11345704A469B1A5A4612042A4303999346100C3E
S11345800A0C914609045A46090C4E460D001204C1
S1134590120C4543059151437243704352190E0C5A
S11345A0B218954203D980256D02AC466044150CBF
S11345B009041204090C28185218834200D2CEE0D0
S11345C000D1C8E01D1A53469E1AB2459241524288
S11345D0AB1A9A46984500D117E139001800FEF746
S11345E061FE019B05004343390050460493FEF7E6
S11345F0DFFE04980B04310C1943884209D9414465
S11346006B1E884500D907E1884200D804E1023DC9
S11346104144049BCB1A180039000493FEF742FE70
S1134620019B82464343390004980193FEF7C0FE80
S113463001980B043104090C194388420DD95346DF
S11346404144013B884500D9E8E0884200D8E5E0D0
S113465002235B429C464144E244019B2D04CE1A52
S113466051462943059D4F462A000B04080C1B0C98
S11346705A4345437B4378435B19170CFB189D420F
S113468003D980256D02AC4660441D0C12041B0442
S1134690120C28189B18864200D293E000D18EE0B9
S11346A001231943A04BE318002B00DC99E04A07CF
S11346B000D09EE05A46D20106D55A469B4B1A407A
S11346C080239346DB00E318994A934268DD012373
S11346D0029A984C1A400023944698460022C5E654
S11346E080224B46120313420AD05B46134206D182
S11346F01A431203120BAC4688468E4CB6E64B4660
S11347001A431203120BBC468A4CAFE603005A4606
S1134710283B9A4000239146984657E6584601F0B4
S113472031F8203040E603005246283B9A400021ED
S1134730934677E601F026F820305FE6884500D2FC
S1134740C7E64B46DE075D0843465B081E43434607
S1134750DB079A46C2E60025924500D333E7039E61
S11347605946B446E244B245AD416D424544EB1866
S11347700139984507D2984200D97FE000D1BCE0C6
S11347801D1A8B461FE79845FAD1039D5545F2D96A
S113479043468B461D1A16E79B46CAE61500E7E614
S11347A05A46C90852070A435B0590465C0D5A46AF
S11347B00123029952021940120B8C4656E6002B33
S11347C000D16FE746444A1EB04529D911008642FC
S11347D000D065E7039A934200D061E762E70121C4
S11347E049420120C21A382A21DD029B03409C461B
S11347F038E60F220A40042A00D15BE70A00111DA3
S1134800914292415242934454E7474BE318002BA0
S1134810E5DD01225242F2E71D00FAE69A461CE762
S1134820B04239D86ED011003AE702933AE71F2A12
S11348303CDC20239B1A0C005846994098404B1EA0
S113484099415B46D440D340204308431A004307B0
S113485009D00F230340042B05D00100081D884212
S11348609B415B42D21813023AD50123029A0124D8
S11348701A400023944698460022F7E50221494253
S11348808C46039DE344AC46E244AA45AD416D42E7
S11348904544ED182D1A96E68A1E03994D008D4263
S11348A0894149424144761803958FE71F204042CD
S11348B0C31A5846D8400300202A28D040205D4619
S11348C0821A954029434A1E914119430723002225
S11348D00B4009D00F2300220B400800042BBDD14C
S11348E0010053075202120BC908194301238846D9
S11348F00299002419408C46B8E55245BED88B462F
S1134900002560E6039D9D42C6D3110062E70025A1
S1134910D8E780225B4612031A43019B1203120B51
S11349209C468846034CA1E5FF030000FFFFFFFE01
S1134930FE070000FF070000F0B557464546DE4677
S11349404E46E0B50C0398464E00230B87B0070093
S113495092469B46760DCD0F002E6BD06D4B9E423A
S113496035D080245B46420F2404DB0014431C43EF
S1134970C3009946684BA3469C460023002766441F
S1134980029343461C035A00DB0F5046240B520D7E
S1134990984600D176E05F4B9A426DD08023410F58
S11349A01B040B435C49E4008C461C43C3000020F9
S11349B062444146B6186940721C0191944607430B
S11349C00F2F00D9B0E0554ABF00D25997465B4635
S11349D00343994600D087E000239B46023308270F
S11349E00293CEE742460192022867D0032800D101
S11349F00EE2012800D062E100230024002299463F
S1134A0001990140CDB2002112030B0D120B1B05BD
S1134A101343434A240513401C436400ED07640810
S1134A202C434846210007B03CBC90469946A24618
S1134A30AB46F0BD034399464FD05B46002B00D1F3
S1134A4089E1584600F09EFE03000B3B1C2B00DD61
S1134A507AE11D22D31A3A0001005C46DA40083993
S1134A608C4013008F4023439B46B94600232D4EB0
S1134A700027361A029384E7534623432AD100249D
S1134A80022096E75346234320D0002C00D157E15F
S1134A90200000F077FE03000B3B1C2B00DD49E1F6
S1134AA01D21CB1A51460200D9405346083A94407E
S1134AB093400C431B4A121A00207AE70125019BFC
S1134AC0144C1D400023002299469CE70024002238
S1134AD001206EE7534603206BE700239B46013316
S1134AE00427002602934CE7032381460C270293F4
S1134AF047E780220023002512039946054C82E7EC
S1134B005C464B4602986FE75C464B46019502981B
S1134B106AE7C046FF07000001FCFFFF847E000037
S1134B20FFFF0F800DFCFFFF4A464946170C1A0C85
S1134B301B041B0C08041900000C41431500884693
S1134B4019007D437943039589462900150045439F
S1134B504D44029545462D0CAA46029D5544A9454F
S1134B6006D98A46802149028946CA44514603919E
S1134B70290C0491414609042D04090C8846290096
S1134B80250C24044144240C05912100414388460A
S1134B90210079438A466843414650448146080CC3
S1134BA048446F43824503D98021490289464F44D2
S1134BB0010C894639004944029141460F04049985
S1134BC03F0C88460004C01980444146049159466C
S1134BD00F0C0904090C884659438A46390051438D
S1134BE0894641464A435146090C8B467B43D218B9
S1134BF05A44934203D980235B029B46D9445146CD
S1134C000904090C8A46414661437C43130C12048F
S1134C104B445244A1468A463C0041466C434D43B2
S1134C2051464D440F0C7D19A94503D980214902F1
S1134C3088464444049F0399B84641448B468345BF
S1134C40804141428846514608042F04000C3F1815
S1134C505846029910188946904292414F44BA46E8
S1134C60524299469346C244D144CB448F42BF41F9
S1134C70C245894199459B41934592417F424942AE
S1134C802D0C52420F435B4213437F19FF185B46BE
S1134C903C19DB0D059A64021C43430213435D1E59
S1134CA0AB415A46C00D034352021343E20156D5A9
S1134CB001205A0803401343E207134364085A4887
S1134CC0604400284DDD5A0709D00F221A40042AF7
S1134CD005D01A1D9A429B415B42E4181300E2017D
S1134CE004D58020514AC00014406044504A904288
S1134CF000DDE3E60125DB0862071A436402019B39
S1134D009146220B4405640D1D407CE680225946E1
S1134D101203114208D0144206D122431203120B8B
S1134D2045469946434C6EE65B461A431203120B02
S1134D30404C68E603005446283B9C400023B9E6F7
S1134D4000F020FD2030A6E60300283B9F4000230E
S1134D50BB4699468AE600F015FD203074E6B44659
S1134D60ADE701252A1A382A06DD019B00241D40DF
S1134D7000230022994646E61F2A21DC2025200034
S1134D80AD1A1E00AB40A840D6405D1EAB41304377
S1134D901843D440430709D00F230340042B05D004
S1134DA00300181D98429B415B42E418230221D55D
S1134DB00125019B01241D4000230022994622E67F
S1134DC01F2521006D42281AC1400800202A1DD049
S1134DD05F35AA1A944023435C1EA341072503436D
S1134DE01D400022002D09D00F2200241A40180073
S1134DF0042AD6D1030065076402220BDB082B4387
S1134E0001259946019B00241D40FCE50024E2E7AE
S1134E10802201251203224301991203120B0D4033
S1134E209946044CEFE5C046FF030000FFFFFFFE78
S1134E30FE070000FF070000F0B54646D6464F4681
S1134E400C03C0B5CD0F4E00610A440F0C43C100E2
S1134E505800400D84468A460F001903500F490A32
S1134E600143C648760DA846DB0FD200844500D125
S1134E70D8E001204340AB4200D1A6E06046351A99
S1134E80002D00DC05E1002810D10B00134300D1F4
S1134E90D7E06B1E002B00D04BE153469F1ABA4556
S1134EA08041641A4042241A01261EE0B34B9E42FC
S1134EB048D080231B041943382D00DD19E11F2D30
S1134EC000DD4CE120230F005B1B10009A409F4043
S1134ED0E840531E9A41E940074317435346DF1BFA
S1134EE0611ABA45A44164420C1B230200D4C5E0F4
S1134EF06402650A002D00D1F6E0280000F042FCAF
S1134F000300083B1F2B00DDE9E020223C00D21AFD
S1134F109D40D4409F4025439E4200DDDBE09E1B24
S1134F20731C1F2B00DD0AE120223800D21A29004D
S1134F3097402C009140D8407A1E9741DC400026CF
S1134F4001430F437B0709D00F233B40042B05D0BB
S1134F503B1DBB42BF417F42E4191F00230225D5FC
S1134F60864B01369E4200D1AFE0854B01251C40A3
S1134F7043466207FF08640276051743240B760D47
S1134F801D4000212403230B0C0D7E4A24051C43E1
S1134F901440330523435B00ED075B082B433800C3
S1134FA019001CBC90469946A246F0BD0125434613
S1134FB06207FF081743E4081D40704B9E4236D039
S1134FC024037605240B760DDBE76346F31A002BE6
S1134FD000DC94E06046002835D068488642B1D0B1
S1134FE080273F043943382B00DCFDE00A431700D7
S1134FF000217A1E9741574457458041091944427C
S11350000C1923023AD55D4B01369E4200D14BE187
S113501001225B4B1C407B0817401F43E2071743E8
S113502064088FE70800104300D024E721E7230039
S11350303B4300D1B9E18022120314432403240B1F
S11350409FE72E007EE70800104300D1CAE0581EF7
S11350508446002800D0E7E0524452458041641859
S11350604042241817000126230207D50226CFE761
S113507064462C4300D1B3E12C0067467B0700D083
S113508062E76307FF081F4301254346E4081D4008
S113509093E7002D78D1751C6D056D0D012D00DC95
S11350A0F2E05046801A8245BF41651A7F42ED1BEB
S11350B08446280200D48CE05046171ABA42924122
S11350C00C1B5542651B984614E7012543460024F2
S11350D01D40002755E72A4CF61A2C4032E73D00C4
S11350E028388540002717E7380000F04BFB2030B4
S11350F006E70A43170000217A1E9741EEE6002BCB
S113510000D0E5E0731C9C465B055B0D012B00DCC5
S11351109FE01A4B9C4500D1C5E052445245804162
S1135120641840422418E707520817436408664687
S113513008E71248854200D185E01D00BCE629003D
S11351401F3EF140202B00D17FE04022D31A9D4026
S11351502F437D1EAF4100240F4300268EE72B0012
S11351600F00203BDF40202D71D040235D1BA94060
S11351700A43511E8A4100211743AFE6FF0700008E
S1135180FFFF7FFFFFFF0F80002E3ED0B34EB445DC
S113519045D0802636046D423443382D00DDA8E026
S11351A01F2D00DD1FE1202627005046761BB74047
S11351B0E84007435046B040461EB041EC403843F7
S11351C0171ABA4292410C1B5242A41A66469846D8
S11351D08BE6644667462C4300D08BE60025002608
S11351E00027EAE61E00ADE61F2B60DC2027F81A34
S11351F00F00844687401000D84007436046824031
S1135200501E8241D9401743F5E626005046064316
S113521005D0ED43002DD3D0904EB445BDD10C0044
S11352201700664698468DE68C4883420BD0634649
S1135230D9E6002D00D096E00800104300D1E2E04A
S11352400C0017009846854E7CE6002580E7002177
S11352508EE7230050460343002E00D0A8E0002B25
S113526000D1DEE00B00134300D16BE652445245FB
S113527080416418404224181700230200D4FDE63C
S1135280774B66461C405DE6250050460543002EDC
S1135290CFD1002D4FD10C00144300D1A0E00C005D
S11352A0170098464EE666460024002785E61F0050
S11352B00800203FF8400700202B00D18EE040205A
S11352C0C31A99400A43511E8A410021174392E6AA
S11352D0002E14D126005046064362D0DB43002B37
S11352E05CD187189742924164185242A4186646CA
S11352F087E650462043441EA041002460E7574EF1
S1135300B4454ED0802636045B423443382B00DD4E
S11353107FE01F2B00DD8BE0202627005046F61A85
S1135320B740D84007435046B040461EB0410743FB
S1135330DC40BF18D6E70D00154300D102E6504605
S1135340801A8245BF41651A7F42ED1B84462802BC
S113535000D48DE65046171ABA4292410C1B5242B1
S1135360A41A9846EEE50D00154300D16BE75046AC
S11353706707C00807438020E4080003044207D0FD
S1135380CD08054204D12C009846D70849070F439D
S11353907B0FE4001C43FF00304ED3E52F4EB44591
S11353A0B4D10C0017006646CCE500270024E8E5DC
S11353B0002B39D00B00134300D144E7C008670722
S11353C007438020E40800030442E1D0CB080342F1
S11353D0DED1D70849070F431C00D9E7002171E744
S11353E000250027E9E52E002700203EF740202D68
S11353F02FD04026751BAC4050462043441EA0418C
S113540000243843DCE6802400252403134E0027BF
S1135410D3E5504620430700781E87410024BF1877
S113542060E70C0017008DE50C0017000B4E89E5B2
S11354301E002700203EF740202B0CD04026F31AF4
S11354409C4050462043441EA04107430024BF18FB
S113545048E70024D0E70024F3E7C046FF07000034
S1135460FFFF7FFF30B5134D0A034B00120B5B0D9A
S1135470C90F0024AB4210DD0F4CA3420FDC802483
S11354800E4D64032243ED1A1F2D0BDD0C48C31A85
S1135490DA405442002900D11400200030BD094BE9
S11354A0CC18FAE7084CE840A44663449A40024307
S11354B0EFE7C046FE0300001D04000033040000B3
S11354C013040000FFFFFF7FEDFBFFFF70B5002812
S11354D030D0C317C4185C40C50F200000F052F947
S11354E0174B184A1B1AD21A1F2A18DD164AD21A49
S11354F09440002224035B05240B5B0D0021100063
S113550024030A0D240B12052243104C1B052240D0
S113551013435B00ED075B082B43190070BD2100AA
S113552091400A000B21081AC4405B052403240B94
S11355305B0DE3E70025002300240022DEE7C046DC
S11355401E0400003304000013040000FFFF0F805A
S11355504100090E4B1C70B5DBB24602750AC40F3C
S1135560012B14DDE0239B006D07360BCB180021C3
S11355700A0D280012051C4D32435B052A405B08C6
S113558013435B00E4075B082343190070BD002943
S113559014D1002D1ED0280000F0F4F80A281CDCD9
S11355A00B232A001B1ADA40030015339D400F4BCE
S11355B012031B1A5B05160B5B0DD8E7002D06D0F2
S11355C0320B802636036D071643094BCFE7084B91
S11355D00026CCE700230026C9E703002A000B3B82
S11355E09A400025E3E7C046FFFF0F8089030000CF
S11355F0FF070000F0B54C00640D0B03621C450F5F
S11356005B0A52052B43C90FC500520D012A28DD40
S11356103A4AA618FE2E1BDC002E3EDD8001020055
S1135620501E82416D0F2A43DB0013435A0704D0F6
S11356300F221A40042A00D004338022D2041A40D4
S11356405AD00136FF2E03D09B015B0AF4B201E06D
S1135650FF2400235802E405400AC90720430843F5
S1135660F0BD002C07D01D43F2D08020DB00800465
S11356700343FF26DAE72B4303D00523DB08FF2C83
S113568003D05B025B0AE4B2E4E7002B32D0802053
S1135690C00303435B025B0ADCE73200173214DB0E
S11356A080221E2712041343BF1B1F2F0FDC144A32
S11356B0944664442A00A5402E00A340751EAE41C2
S11356C0FA40334313430026B0E70024D5E702220F
S11356D05242961B1A00F240202F09D009488446F2
S11356E06444A3402B435D1EAB41002613439DE756
S11356F00023F7E70023ADE73400BFE780FCFFFF9A
S113570082FCFFFFA2FCFFFF8446101C62468C460D
S1135710191C634600E0C0461FB500F0EFF80028EE
S113572001D40021C8421FBD10B500F049F8404221
S1135730013010BD10B500F0E1F8002801DB0020B5
S113574010BD012010BDC04610B500F0D7F80028E8
S113575001DD002010BD012010BDC04610B500F0D1
S113576069F8002801DC002010BD012010BDC046EE
S113577010B500F05FF8002801DA002010BD012008
S113578010BDC0461C2101231B04984201D3000C08
S113579010391B0A984201D3000A08391B099842A0
S11357A001D30009043902A2105C40187047C046B6
S11357B004030202010101010000000000000000D6
S11357C0F0B54F464646D6465C00C0B51F03DB0F16
S11357D09A46174B0E034D0084468046360B6D0DDA
S11357E0C90F91463F0B640D01209D4208D09C4295
S11357F001D0A5420BD01CBC90469946A246F0BDF0
S113580063463343F7D1AC42F5D13A43F3D1012097
S1135810BE42F0D1C845EED1514507D0002DEAD1A2
S113582063461E433000461EB041E4E70020E2E731
S1135830FF070000F0B54546DE4657464E46E0B544
S11358401F033D0B2C4F0E034C00AB465D008446FA
S1135850360B640DC90F90466D0DDB0FBC422AD088
S1135860254FBD422DD0002C0FD130430700814677
S113587078427841C0B2002D17D15F463A4314D123
S11358804B460020002B0AD006E0002D02D15846DA
S1135890024301D0994218D04842012108433CBC3C
S11358A090469946A246AB46F0BD0028F2D00120AE
S11358B0013B1843F3E737000743D1D002204042AD
S11358C0EDE75F461743CED0F8E7AC42E4DC03DAF9
S11358D0481E01210843E2E75E45DDD806D00020DA
S11358E05E45DCD20123481E1843D8E7C445D3D80B
S11358F00020C445F6D3D2E7FF070000F0B54E46BA
S11359004546DE4657465C00E0B51F03DB0F99466B
S11359102A4B0E034D00C90F8446360B6D0D8B4682
S113592090463F0B640D9D4220D0244B9C4222D0D4
S1135930002D12D1304343424341DBB2002C1FD02F
S1135940002B0CD04B460120013B034318003CBC08
S113595090469946A246AB46F0BD002C16D0CB45E6
S113596017D05B46594201230B43EFE73100022372
S11359700143EBD1D9E7390002231143E6D1D7E73C
S11359803A43DDD100230028E0D0EAE73A43E6D1E8
S1135990E7E7A542E5DC05DBBE42E2D807D00023F9
S11359A0BE42D3D25946012301390B43CEE7C44545
S11359B0D7D80023C445F5D3C8E7C046FF07000085
S11359C010B50A22002101F00DF810BD70B50026B3
S11359D00C4D0D4C641BA410A64209D1002602F004
S11359E0EBFB0A4D0A4C641BA410A64205D170BD02
S11359F0B300EB5898470136EEE7B300EB589847ED
S1135A000136F2E7C4810000C4810000C4810000B3
S1135A10C8810000931E10B50C00222B04D900236A
S1135A201C000B70200010BD0A2A09D1002807DAD7
S1135A302D230B7001214042611800F0E7FFF1E7CC
S1135A400021F9E710B5FFF7E5FF10BD10B5034BD2
S1135A500100186800F016F810BDC046E0000020F0
S1135A60002310B59A4200D110BDCC5CC45401335C
S1135A70F8E703008218934200D17047197001338C
S1135A80F9E70000032370B5CD1C9D4308350600DB
S1135A900C2D1ED20C25A9421DD8300001F040FB6C
S1135AA0254A14682100002919D1244C2368002BAD
S1135AB003D1300000F044F820602900300000F0E9
S1135AC03FF8431C2CD10C233000336001F029FB38
S1135AD003E0002DDFDA0C233360002070BD0B6877
S1135AE05B1B1AD40B2B03D90B60CC18256003E085
S1135AF08C420ED163681360300001F012FB200069
S1135B0007220B30231D9043C31AE7D05A42E250B8
S1135B10E4E74B6863600C00EEE70C004968C2E7F9
S1135B200323C41C9C43A042E0D0211A300000F09F
S1135B3007F8431CDAD1C6E7D0050020D4050020BD
S1135B40002370B5064C050008002360FAF746FBF5
S1135B50431C03D12368002B00D02B6070BDC046CA
S1135B60C0060020020010B51378002B05D1CC5CD0
S1135B70D4540133002CFAD110BD0132F4E70023D0
S1135B80C25C0133002AFBD1581E7047F7B50500EB
S1135B900F0083180193019B9D4219D02C7801F0CA
S1135BA09DFA0322001943781340012B00D12034BD
S1135BB03E7801F093FA0322801943781340012BB5
S1135BC000D12036A01B04D101350137002EE2D1CB
S1135BD00020FEBD70B50D000024002905D101F0A0
S1135BE0A7FE040006E01C00581C290001F0A0FEDA
S1135BF0031EF8D1200070BD70B516000D0001F031
S1135C005FFD002E0DD06B236A00520D9B1A002BF2
S1135C1007DD0024034A1B059D182B002200FEF714
S1135C208BFE70BD0000F03FF0B5A5B007930023D4
S1135C3004900798209306911A9201F05DFA0500EA
S1135C400068FFF79CFF00260027069B05901F9322
S1135C501F9B1A780D2A39D8092A3DD2002A44D02C
S1135C600023129300221F9C0C922378302B00D027
S1135C707EE06378582B02D0782B00D06EE0079B2F
S1135C80B74A0293129B1FA9019320AB0093049877
S1135C9021AB00F03CFF07250590054005D0062DFB
S1135CA02FD1002301341F9412931A9B002B02D08E
S1135CB01A9B1F9A1A60129B002B1DD0802332005E
S1135CC01B06FB181000190025B0F0BD2B2A05D0C7
S1135CD02D2A14D0202AC3D10133B8E7002212920E
S1135CE05A1C1F925B78002BBCD1069B1F93002388
